:020000040800F2
:10000000FFFF0220AD2C0008852B0008912B000873
:10001000992B0008A12B0008A92B00080000000064
:10002000000000000000000000000000B12B0008EC
:10003000BD2B000800000000C92B0008D52B0008CC
:10004000FD2C0008FD2C0008FD2C0008FD2C0008EC
:10005000FD2C0008FD2C0008FD2C0008FD2C0008DC
:10006000FD2C0008FD2C0008FD2C0008FD2C0008CC
:10007000FD2C0008192C0008FD2C00082D2C000870
:10008000FD2C0008FD2C0008FD2C0008FD2C0008AC
:10009000FD2C0008FD2C0008FD2C0008FD2C00089C
:1000A000FD2C0008FD2C0008FD2C0008FD2C00088C
:1000B000FD2C0008FD2C0008FD2C0008FD2C00087C
:1000C000FD2C0008FD2C0008FD2C0008FD2C00086C
:1000D000FD2C0008092C0008FD2C0008FD2C000850
:1000E000FD2C0008FD2C0008FD2C0008FD2C00084C
:1000F000FD2C0008FD2C0008FD2C0008FD2C00083C
:10010000FD2C0008FD2C0008FD2C0008FD2C00082B
:10011000FD2C0008FD2C0008FD2C0008FD2C00081B
:10012000FD2C0008FD2C0008FD2C0008FD2C00080B
:10013000FD2C0008FD2C0008FD2C0008FD2C0008FB
:10014000FD2C0008FD2C0008FD2C0008FD2C0008EB
:10015000E12B0008FD2C0008F52B0008FD2C000801
:10016000FD2C0008FD2C0008FD2C0008FD2C0008CB
:10017000FD2C0008FD2C0008FD2C000800000000EC
:10018000FD2C0008FD2C0008FD2C0008FD2C0008AB
:10019000FD2C0008FD2C0008FD2C0008FD2C00089B
:0C01A000FD2C0008FD2C0008FD2C0008C0
:1001AC0008B50548054B1B1A062B00D808BD044B97
:1001BC00002BFBD09847F9E7740000207700002053
:1001CC000000000008B50748074B1B1A9B1003EBF7
:1001DC00D373591000D108BD044A002AFBD09047B4
:1001EC00F9E700BF7400002074000020000000003C
:1001FC0010B5064C237843B9FFF7D2FF044B13B16B
:10020C000448AFF300800123237010BD740000205C
:10021C0000000000503E000808B5074B1BB1074812
:10022C000749AFF300800748036813B1064B03B1CD
:10023C009847BDE80840C5E700000000503E0008A4
:10024C0078000020740000200000000080B58AB007
:10025C0000AF0346FB71FB79002B0CD1204B204ADD
:10026C00126B42F040021A631D4B1B6B03F04003F0
:10027C003B613B690EE0FB79012B0BD1184B184A03
:10028C00126B42F040021A63154B1B6B03F04003D8
:10029C00FB60FB68FA79134B33F812307B61012356
:1002AC00BB610123FB6102233B62FA790E4B53F8CD
:1002BC00222007F114031046194600F02DFCFA79A0
:1002CC00094B53F82220F979064B33F811301046BC
:1002DC001946002200F0C8FD2837BD4680BD00BF7E
:1002EC0000380240983E00080000002080B582B023
:1002FC0000AF0346FB71FA79074B53F82220F979CA
:10030C00064B33F8113010461946012200F0ACFDB3
:10031C000837BD4680BD00BF00000020983E000895
:10032C0080B582B000AF0346FB71FA79064B53F8E7
:10033C002220F979054B33F811301046194600F09C
:10034C00ABFD0837BD4680BD00000020983E00087C
:10035C0080B500AF0E4B0E4A126842F400721A6060
:10036C000B4B0B4A126842F480621A60084B084A25
:10037C00126842F480721A60032000F00FF90F200B
:10038C0000F00EF800F006F80023184680BD00BF00
:10039C00003C024080B400AFBD465DF8047B704762
:1003AC0080B582B000AF786001F002FF0246094BC5
:1003BC00A3FB02139B09184600F024F94FF0FF3001
:1003CC007968002200F0F4F8002318460837BD467F
:1003DC0080BD00BFD34D621080B400AF044B1B68CE
:1003EC005A1C034B1A60BD465DF8047B704700BF76
:1003FC009000002080B400AF034B1B681846BD462C
:10040C005DF8047B704700BF9000002080B485B07D
:10041C0000AF78607B6803F00703FB600C4BDB6874
:10042C00BB60BA684FF6FF031340BB60FB681A024F
:10043C00BB68134343F0BF6343F40033BB60044B0E
:10044C00BA68DA601437BD465DF8047B704700BFAC
:10045C0000ED00E080B400AF044BDB6803F4E06314
:10046C001B0A1846BD465DF8047B704700ED00E0A2
:10047C0080B483B000AF0346FB71084B97F907209B
:10048C005209F97901F01F01012000FA01F143F83A
:10049C0022100C37BD465DF8047B704700E100E08C
:1004AC0080B483B000AF03463960FB7197F9073015
:1004BC00002B0BDA0D49FB7903F00F03043B3A6870
:1004CC00D2B21201D2B20B441A7609E0084997F95C
:1004DC0007303A68D2B21201D2B20B4483F800232F
:1004EC000C37BD465DF8047B704700BF00ED00E0A3
:1004FC0000E100E080B489B000AFF860B9607A60C8
:10050C00FB6803F00703FB61FB69C3F10703042BD2
:10051C0028BF0423BB61FB690433062B02D9FB699A
:10052C00033B00E000237B61BB69012202FA03F369
:10053C005A1EBB681A407B699A407B69012101FAFB
:10054C0003F3591E7B680B40134318462437BD46F2
:10055C005DF8047B704700BF80B582B000AF786057
:10056C007B68013BB3F1807F01D301230FE00A4B81
:10057C007A68013A5A604FF0FF300F21FFF790FF75
:10058C00054B00229A60044B07221A600023184680
:10059C000837BD4680BD00BF10E000E080B582B0DA
:1005AC0000AF78607868FFF731FF0837BD4680BD33
:1005BC0080B586B000AF0346B9607A60FB73002348
:1005CC007B61FFF747FF78617869B9687A68FFF754
:1005DC0091FF034697F90F2010461946FFF760FF6D
:1005EC001837BD4680BD00BF80B582B000AF034652
:1005FC00FB7197F907301846FFF73AFF0837BD46ED
:10060C0080BD00BF80B582B000AF78607868FFF71E
:10061C00A3FF034618460837BD4680BD80B584B09D
:10062C0000AF78600023FB607B68002B01D10123B5
:10063C005AE07B68022283F835207B681B681B68B4
:10064C00FB60FA682A4B1340FB607B685A687B6836
:10065C009B681A437B68DB681A437B681B691A43E7
:10066C007B685B691A437B689B691A437B68DB690F
:10067C001A437B681B6A1343FA681343FB607B685D
:10068C005B6A042B07D17B68DA6A7B681B6B1343AC
:10069C00FA681343FB607B681B68FA681A607B6816
:1006AC001B685B69FB60FB6823F00703FB607B68DE
:1006BC005B6AFA681343FB607B685B6A042B04D1AA
:1006CC007B689B6AFA681343FB607B681B68FA685B
:1006DC005A61786800F0EAF97B680022DA647B687A
:1006EC00012283F83520002318461037BD4680BD03
:1006FC003F8010F080B584B000AFF860B9607A60CC
:10070C003B60FB6893F83430012B01D102232EE0BF
:10071C00FB68012283F83420FB68022283F8352021
:10072C00FB681B68FA681268126822F001021A60F2
:10073C00F868B9687A683B6800F08AF9FB681B684E
:10074C00FA681268126842F01E021A60FB681B6895
:10075C00FA681268526942F080025A61FB681B68A1
:10076C00FA681268126842F001021A6000231846F7
:10077C001037BD4680BD00BF80B584B000AF786037
:10078C007B681B6DFB60FB681A687B685B6D0821DE
:10079C0001FA03F31340002B2AD07B681B681B68FB
:1007AC0003F00403002B23D07B681B687A68126863
:1007BC00126822F004021A607B685B6D08229A4072
:1007CC00FB689A607B68DB6C43F001027B68DA643F
:1007DC007B68042283F835207B68002283F8342060
:1007EC007B689B6C002B03D07B689B6C786898476C
:1007FC00FB681A687B685B6D934901FA03F313403D
:10080C00002B2AD07B681B685B6903F08003002BEC
:10081C0023D07B681B687A681268526922F08002C8
:10082C005A617B685B6D884A9A40FB689A607B686A
:10083C00DB6C43F002027B68DA647B68042283F889
:10084C0035207B68002283F834207B689B6C002B5E
:10085C0003D07B689B6C78689847FB681A687B6848
:10086C005B6D7A4901FA03F31340002B2AD07B68A5
:10087C001B681B6803F00203002B23D07B681B68EA
:10088C007A681268126822F002021A607B685B6D4B
:10089C006E4A9A40FB689A607B68DB6C43F00402FA
:1008AC007B68DA647B68042283F835207B6800223D
:1008BC0083F834207B689B6C002B03D07B689B6C8B
:1008CC0078689847FB681A687B685B6D102101FAA1
:1008DC0003F31340002B4CD07B681B681B6803F0A0
:1008EC000803002B45D07B681B681B6803F480232E
:1008FC00002B1DD07B685B6D10229A40FB689A60C0
:10090C007B681B681B6803F40023002B04D17B68F5
:10091C00312283F8352024E07B681B681B6803F4C4
:10092C000023002B1DD07B68412283F8352018E072
:10093C007B681B681B6803F48073002B07D17B68F2
:10094C001B687A681268126822F008021A607B68C9
:10095C005B6D10229A40FB689A607B68312283F8A9
:10096C0035207B681B6C002B03D07B681B6C786874
:10097C009847FB681A687B685B6D202101FA03F3CA
:10098C001340002B5CD07B681B681B6803F01003C2
:10099C00002B55D07B681B681B6803F48023002B4D
:1009AC0025D07B685B6D20229A40FB689A607B683F
:1009BC001B681B6803F40023002B08D17B685B6C5D
:1009CC00002B3DD07B685B6C7868984738E07B687F
:1009DC001B681B6803F40023002B31D07B68DB6B96
:1009EC00002B2DD07B68DB6B7868984728E07B6800
:1009FC001B681B6803F48073002B07D17B681B6892
:100A0C007A681268126822F010021A607B685B6DBB
:100A1C0020229A40FB689A607B68DA6C7B68DA6407
:100A2C007B68112283F835207B68002283F8342000
:100A3C007B68DB6B002B03D07B68DB6B786898479B
:100A4C001037BD4680BD00BF01008000040080004F
:100A5C0080B485B000AFF860B9607A603B60FB6829
:100A6C001B68FA681268126822F480221A60FB680C
:100A7C001B683A685A60FB689B68402B08D1FB687E
:100A8C001B687A689A60FB681B68BA68DA6007E0D2
:100A9C00FB681B68BA689A60FB681B687A68DA6046
:100AAC001437BD465DF8047B704700BF80B485B039
:100ABC0000AF78607B681B68DBB2A3F11002144BAB
:100ACC00A3FB02131B09FB60124AFB6813441B783F
:100ADC001A467B685A65FB68032B09D97B681B682F
:100AEC0023F47F7323F003031A1D7B681A6507E058
:100AFC007B681B6823F47F7323F003037A68136508
:100B0C007B681B6D18461437BD465DF8047B704737
:100B1C00ABAAAAAA9C3E000880B489B000AF78604A
:100B2C00396000237B6100233B610023BB61002300
:100B3C00FB6175E1FB69012202FA03F37B613B68FF
:100B4C001A687B6913403B613A697B699A4240F0B1
:100B5C0064813B685B68022B03D03B685B68122B9B
:100B6C0023D1FB69DA087B68083253F82230BB6169
:100B7C00FB6903F007039B000F2202FA03F3DB432C
:100B8C00BA691340BB613B681A69FB6903F0070340
:100B9C009B0002FA03F3BA691343BB61FB69DA08E1
:100BAC007B680832B96943F822107B681B68BB610B
:100BBC00FB695B00032202FA03F3DB43BA691340BF
:100BCC00BB613B685B6803F00302FB695B0002FAE4
:100BDC0003F3BA691343BB617B68BA691A603B685B
:100BEC005B68012B0BD03B685B68022B07D03B6822
:100BFC005B68112B03D03B685B68122B30D17B6890
:100C0C009B68BB61FB695B00032202FA03F3DB43C5
:100C1C00BA691340BB613B68DA68FB695B0002FA96
:100C2C0003F3BA691343BB617B68BA699A607B684A
:100C3C005B68BB61FB69012202FA03F3DB43BA690F
:100C4C001340BB613B685B6803F010031A09FB6936
:100C5C0002FA03F3BA691343BB617B68BA695A6041
:100C6C007B68DB68BB61FB695B00032202FA03F360
:100C7C00DB43BA691340BB613B689A68FB695B0054
:100C8C0002FA03F3BA691343BB617B68BA69DA6091
:100C9C003B685B6803F08053002B00F0BE80654B13
:100CAC00644A526C42F480425A64624B5B6C03F4AB
:100CBC008043FB60FB68604BFA699208023253F880
:100CCC002230BB61FB6903F003039B000F2202FA85
:100CDC0003F3DB43BA691340BB617A68574B9A4202
:100CEC0037D07A68564B9A4231D07A68554B9A4233
:100CFC002BD07A68544B9A4225D07A68534B9A423F
:100D0C001FD07A68524B9A4219D07A68514B9A424A
:100D1C0013D07A68504B9A420DD07A684F4B9A4256
:100D2C0007D07A684E4B9A4201D1092312E00A236C
:100D3C0010E008230EE007230CE006230AE005234D
:100D4C0008E0042306E0032304E0022302E001236D
:100D5C0000E00023FA6902F0030292009340BA69A2
:100D6C001343BB61344BFA6992080232B96943F8F8
:100D7C0022103C4B1B68BB613B69DB43BA691340D7
:100D8C00BB613B685B6803F48033002B03D0BA690A
:100D9C003B691343BB61334BBA691A60314B5B68D7
:100DAC00BB613B69DB43BA691340BB613B685B6861
:100DBC0003F40033002B03D0BA693B691343BB61C6
:100DCC00284BBA695A60274B9B68BB613B69DB4374
:100DDC00BA691340BB613B685B6803F48013002B5A
:100DEC0003D0BA693B691343BB611E4BBA699A6065
:100DFC001C4BDB68BB613B69DB43BA691340BB61CD
:100E0C003B685B6803F40013002B03D0BA693B69A1
:100E1C001343BB61134BBA69DA60FB690133FB61A5
:100E2C00FB690F2B7FF686AE2437BD465DF8047B3D
:100E3C00704700BF003802400038014000000240FB
:100E4C000004024000080240000C02400010024066
:100E5C000014024000180240001C02400020024016
:100E6C0000240240003C014080B483B000AF7860A5
:100E7C0013460A467A807B707B78002B03D07A88E5
:100E8C007B689A6103E07B881A047B689A610C3753
:100E9C00BD465DF8047B704780B483B000AF7860CA
:100EAC000B467B807B685A697B885A407B685A6109
:100EBC000C37BD465DF8047B704700BF80B584B02D
:100ECC0000AF78600023FB600023BB607B68002BC5
:100EDC0001D10123C1E07B6893F83530DBB2002BE4
:100EEC0006D17B68002283F83420786801F06AFD13
:100EFC007B68022283F835207B681B687A6812684D
:100F0C00126822F001021A6001F078F9B860BA6830
:100F1C00544BA3FB02039B0CFB607B681B68FA68B9
:100F2C005A607B681A687B6859684F4B994202D8A3
:100F3C00FB68013309E0FB684FF4967101FB03F188
:100F4C004A4BA3FB01039B09013313627B681968AD
:100F5C007B685A68444B9A4212D87B685B685B008A
:100F6C00BA68B2FBF3F3C3F30B03032B06D97B680C
:100F7C005B685B00BA68B2FBF3F345E0042343E023
:100F8C007B689B68002B0FD17B685A6813465B000B
:100F9C001344BA68B2FBF3F3C3F30B03002B14BF77
:100FAC0000230123DBB210E07B685A6813469B00D8
:100FBC0013449A001344BA68B2FBF3F3C3F30B0364
:100FCC00002B14BF00230123DBB2002B01D0012323
:100FDC001AE07B689B68002B0AD17B685A68134621
:100FEC005B001344BA68B2FBF3F343F400430BE029
:100FFC007B685A6813469B0013449A001344BA68E2
:10100C00B2FBF3F343F44043CB617B681B687A6813
:10101C00D1697A68126A0A431A607B681B687A681D
:10102C0011697A68D2680A439A607B681B687A688F
:10103C0051697A6892690A43DA607B681B687A683E
:10104C001268126842F001021A607B6800229A63EF
:10105C007B68012283F83520002318461037BD46E3
:10106C0080BD00BF83DE1B43A0860100D34D621000
:10107C0080B586B000AFF8607A600A467A813B8111
:10108C00FB6893F83530DBB2012B78D17B68002BF1
:10109C0002D03B89002B01D1012371E0F8683A4959
:1010AC00012242F2107300F0D7FA0346002B01D054
:1010BC00022365E0FB6893F83430012B01D1022345
:1010CC005EE0FB68012283F83420FB681B68FA6839
:1010DC001268126822F400621A60FB68122283F80C
:1010EC003520FB6800229A63FB687A685A62FB68B9
:1010FC003A891A85FB683A895A85FB68DB6A234A68
:10110C00DA63FB68DB6A224A9A64FB68D86A7968FE
:10111C00FB681B6810331A463B89FFF7EBFA7B8997
:10112C00F8681946232200F0F7F80346002B0FD07D
:10113C00FB689B6B042B05D1FB68002283F83420E1
:10114C0001231DE0FB68002283F83420032317E001
:10115C00FB681B68FA681268526842F400625A60B5
:10116C00FB681B685B697B61FB681B689B697B6127
:10117C007B69FB68002283F83420002300E0022303
:10118C0018461837BD4680BD020010002D1500080A
:10119C002116000880B586B000AFF8607A600A4668
:1011AC007A813B81FB6893F83530DBB2012B40F040
:1011BC008D807B68002B02D03B89002B01D1012351
:1011CC0085E0F8684449012242F2107300F044FAB9
:1011DC000346002B01D0022379E0FB6893F83430EE
:1011EC00012B01D1022372E0FB68012283F8342029
:1011FC00FB681B68FA681268126822F400621A60B5
:10120C00FB68222283F83520FB6800229A63FB6876
:10121C007A685A62FB683A891A85FB683A895A855A
:10122C00FB681B6B2D4ADA63FB681B6B2C4A9A64B8
:10123C00FB68186BFB681B68103319467A683B898E
:10124C00FFF758FA7B89F8681946232200F0C6F894
:10125C000346002B0FD0FB689B6B042B05D1FB685E
:10126C00002283F83420012331E0FB68002283F84C
:10127C00342003232BE03B89012B08D1FB681B682E
:10128C00FA681268126822F480621A6007E0FB6840
:10129C001B68FA681268526842F480525A60FB6804
:1012AC001B68FA681268526842F400625A60FB6864
:1012BC001B685B697B61FB681B689B697B617B6955
:1012CC00FB68002283F83420002300E00223184638
:1012DC001837BD4680BD00BF02001000A9150008DC
:1012EC002116000880B483B000AF78607B6893F857
:1012FC003530DBB218460C37BD465DF8047B7047C1
:10130C0080B483B000AF78607B689B6B18460C3759
:10131C00BD465DF8047B704780B584B000AFF860C3
:10132C000B467A607B81FB681B68FA68126812684E
:10133C0042F480721A60F8684FF0011100227B6849
:10134C0000F08AF90346002B01D003233DE0FB6833
:10135C001B69B3F5804F07D1FB681B687A89D2B241
:10136C0002F0FE021A611FE0FB681B687A8902F426
:10137C004072D211D2B262F00F02D2B21A61F86886
:10138C0014497A6800F0F2F90346002B07D0FB6889
:10139C009B6B042B01D1012317E0032315E0FB68A1
:1013AC001B687A89D2B21A61F8680B497A6800F026
:1013BC00DDF90346002B07D0FB689B6B042B01D196
:1013CC00012302E0032300E0002318461037BD463A
:1013DC0080BD00BF080001000200010080B586B08E
:1013EC0000AFF8600B467A607B81FB681B68FA687B
:1013FC001268126842F480621A60FB681B68FA6813
:10140C001268126842F480721A60F8684FF0011189
:10141C0000227B6800F020F90346002B01D0032347
:10142C0076E0FB681B69B3F5804F08D1FB681B683D
:10143C007A89D2B242F00102D2B21A6157E0FB684B
:10144C001B687A8902F44072D211D2B262F00F0298
:10145C00D2B21A61F86830497A6800F087F903460D
:10146C00002B07D0FB689B6B042B01D101234FE0B1
:10147C0003234DE0FB681B687A89D2B21A61F868C5
:10148C0026497A6800F072F90346002B07D0FB68F6
:10149C009B6B042B01D101233AE0032338E0FB685A
:1014AC001B685B697B61FB681B689B697B617B6963
:1014BC00FB681B68FA681268126842F480721A6042
:1014CC00F8684FF0011100227B6800F0C5F8034664
:1014DC00002B01D003231BE0FB681B687A8902F404
:1014EC004072D211D2B262F00E02D2B21A61F86816
:1014FC000A497A6800F03AF90346002B07D0FB68DA
:10150C009B6B042B01D1012302E0032300E0002399
:10151C0018461837BD4680BD0800010002000100C6
:10152C0080B584B000AF78607B689B6BFB60F8681B
:10153C0019490022232300F08FF80346002B05D015
:10154C00FB689B6B43F02002FB689A63FB681B688B
:10155C00FA681268126842F400721A60FB681B6821
:10156C00FA681268526822F400625A60FB68002222
:10157C005A85FB68012283F83520FB689B6B002B96
:10158C0003D0F86801F014FA02E0F86801F0FCF9F5
:10159C001037BD4680BD00BF0400010080B584B08B
:1015AC0000AF78607B689B6BFB60FB681B68FA681C
:1015BC001268126822F480621A60FB681B68FA6871
:1015CC001268126842F400721A60FB681B68FA68B1
:1015DC001268526822F480525A60FB681B68FA68E1
:1015EC001268526822F400625A60FB6800225A8525
:1015FC00FB68012283F83520FB689B6B002B03D022
:10160C00F86801F0D5F902E0F86801F0C7F9103775
:10161C00BD4680BD80B584B000AF78607B689B6BA5
:10162C00FB60FB681B68FA681268126822F480621F
:10163C001A60FB6800225A85FB68012283F835206A
:10164C00FB689B6B43F01002FB689A63F86801F02F
:10165C00AFF91037BD4680BD80B586B000AFF860DD
:10166C00B9603B601346FB7100237B61FEF7C2FE41
:10167C007861FB79002B3AD118E03B68B3F1FF3F5E
:10168C0014D03B68002B07D0FEF7B4FE02467B69F2
:10169C00D21A3B689A4209D9FB68012283F835209B
:1016AC00FB68002283F8342003235BE0BB681B0C2F
:1016BC00DBB2012B0CD1FB681B685B69DA43BB689E
:1016CC0013409BB2002B0CBF00230123DBB20BE0B9
:1016DC00FB681B689B69DA43BB6813409BB2002B09
:1016EC000CBF00230123DBB2002BC6D139E018E07C
:1016FC003B68B3F1FF3F14D03B68002B07D0FEF7DB
:10170C0079FE02467B69D21A3B689A4209D9FB687A
:10171C00012283F83520FB68002283F83420032350
:10172C0020E0BB681B0CDBB2012B0CD1FB681B68E7
:10173C005B69DA43BB6813409BB2002B14BF0023D8
:10174C000123DBB20BE0FB681B689B69DA43BB68C7
:10175C0013409BB2002B14BF00230123DBB2002BE0
:10176C00C6D1002318461837BD4680BD80B586B05B
:10177C0000AFF860B9607A6000237B61FEF73AFE37
:10178C00786139E0FB681B685B6903F48063002BAC
:10179C0019D0FB681B68FA681268126842F4007270
:1017AC001A60FB681B686FF480625A61FB68042244
:1017BC009A63FB68012283F83520FB68002283F8CA
:1017CC003420012339E07B68B3F1FF3F14D07B68F0
:1017DC00002B07D0FEF70EFE02467B69D21A7B68FF
:1017EC009A4209D9FB68012283F83520FB68002254
:1017FC0083F83420032320E0BB681B0CDBB2012BE5
:10180C000CD1FB681B685B69DA43BB6813409BB265
:10181C00002B0CBF00230123DBB20BE0FB681B6821
:10182C009B69DA43BB6813409BB2002B0CBF0023AF
:10183C000123DBB2002BA5D1002318461837BD4677
:10184C0080BD00BF80B586B000AF00237B612D4BFF
:10185C002C4A126C42F080521A642A4B1B6C03F017
:10186C0080533B603B684FF480333B613B6993FA98
:10187C00A3F3FB60FB68B3FA83F39B0003F184438F
:10188C0003F5602301221A60FEF7B4FD786109E0CC
:10189C00FEF7B0FD02467B69D31AB3F57A7F01D906
:1018AC0003232BE0184B5B6803F48033002BEFD041
:1018BC004FF40033BB60BB6893FAA3F37B607B6887
:1018CC00B3FA83F39B0003F1844303F560230122F5
:1018DC001A60FEF78FFD786109E0FEF78BFD02467A
:1018EC007B69D31AB3F57A7F01D9032306E0064B43
:1018FC005B6803F40033002BEFD000231846183735
:10190C00BD4680BD003802400070004080B58EB0EE
:10191C0000AF786000237B637B681B6803F00103D6
:10192C00002B6AD0A24B9B6803F00C03042B0BD04A
:10193C009F4B9B6803F00C03082B12D19C4B5B68EC
:10194C0003F48003002B0CD0994B1B6803F4003379
:10195C00002B05D07B685B68002B01D101230FE2C3
:10196C004BE0944B00221A70FEF744FD78630AE0BA
:10197C00FEF740FD02467B6BD21A41F288339A4245
:10198C0001D90323FCE18A4B1B6803F40033002BC1
:10199C00EED1884B7A685268D2B21A707B685B6859
:1019AC00002B15D0FEF726FD78630AE0FEF722FD2A
:1019BC0002467B6BD21A41F288339A4201D9032337
:1019CC00DEE17B4B1B6803F40033002BEED014E0FC
:1019DC00FEF710FD78630AE0FEF70CFD02467B6B08
:1019EC00D21A41F288339A4201D90323C8E1704BD1
:1019FC001B6803F40033002BEED17B681B6803F0EB
:101A0C000203002B77D06A4B9B6803F00C03002B6E
:101A1C000BD0674B9B6803F00C03082B26D1644B4F
:101A2C005B6803F48003002B20D1614B1B6803F02F
:101A3C000203002B05D07B68DB68012B01D001234E
:101A4C009EE15B4B5A4A126822F0F8017A681069E1
:101A5C00F8223A633A6B92FAA2F2FA62FA6AB2FA92
:101A6C0082F200FA02F20A431A6044E07B68DB68F7
:101A7C00002B2AD0504B01221A60FEF7BBFC786376
:101A8C0008E0FEF7B7FC02467B6BD31A642B01D936
:101A9C00032375E1464B1B6803F00203002BF0D0C7
:101AAC00434B434A126822F0F8017A681069F82215
:101ABC00BA62BA6A92FAA2F27A627A6AB2FA82F2DA
:101ACC0000FA02F20A431A6015E03B4B00221A603E
:101ADC00FEF790FC786308E0FEF78CFC02467B6B0B
:101AEC00D31A642B01D903234AE1314B1B6803F051
:101AFC000203002BF0D17B681B6803F00803002B5A
:101B0C0030D07B685B69002B16D02C4B01221A60FD
:101B1C00FEF770FC786308E0FEF76CFC02467B6B0A
:101B2C00D31A642B01D903232AE1214B5B6F03F0F9
:101B3C000203002BF0D015E0204B00221A60FEF7B8
:101B4C0059FC786308E0FEF755FC02467B6BD31A10
:101B5C00642B01D9032313E1154B5B6F03F00203D4
:101B6C00002BF0D17B681B6803F00403002B7BD0A7
:101B7C000F4B0F4A126C42F080521A640C4B1B6CC8
:101B8C0003F08053BB60BB680D4B0D4A126842F4E6
:101B9C0080721A60FEF72EFC786313E0FEF72AFCC5
:101BAC0002467B6BD31A642B0CD90323E8E000BFED
:101BBC00003802400238024000004742800E474283
:101BCC0000700040704B1B6803F48073002BE5D051
:101BDC006E4B00221A70FEF70DFC78630AE0FEF7DC
:101BEC0009FC02467B6BD21A41F288339A4201D926
:101BFC000323C5E0664B1B6F03F00203002BEED1F1
:101C0C00624B7A689268D2B21A707B689B68002B20
:101C1C0015D0FEF7EFFB78630AE0FEF7EBFB02460C
:101C2C007B6BD21A41F288339A4201D90323A7E085
:101C3C00574B1B6F03F00203002BEED014E0FEF7A2
:101C4C00D9FB78630AE0FEF7D5FB02467B6BD21A10
:101C5C0041F288339A4201D9032391E04C4B1B6F1C
:101C6C0003F00203002BEED17B689B69002B00F084
:101C7C008680474B9B6803F00C03082B7DD07B6858
:101C8C009B69022B62D1434B00221A60FEF7B2FB18
:101C9C00786308E0FEF7AEFB02467B6BD31A642B2D
:101CAC0001D903236CE03A4B1B6803F00073002B43
:101CBC00F0D1374B7A68D1697A68126A11437A6825
:101CCC00506A47F6C0723A623A6A92FAA2F2FA6124
:101CDC00FA69B2FA82F200FA02F211437A68926A55
:101CEC005208501E4FF44032BA61BA6992FAA2F20D
:101CFC007A617A69B2FA82F200FA02F211437A68D6
:101D0C00D06A4FF070623A613A6992FAA2F2FA60C4
:101D1C00FA68B2FA82F200FA02F20A435A601D4BD8
:101D2C0001221A60FEF766FB786308E0FEF762FB9F
:101D3C0002467B6BD31A642B01D9032320E0144B8E
:101D4C001B6803F00073002BF0D018E0114B00223D
:101D5C001A60FEF74FFB786308E0FEF74BFB024678
:101D6C007B6BD31A642B01D9032309E0084B1B6846
:101D7C0003F00073002BF0D101E0012300E00023FD
:101D8C0018463837BD4680BD0070004070380240A0
:101D9C00003802406000474280B584B000AF7860E4
:101DAC0039600023FB60A24B1B6803F00F023B68F9
:101DBC009A4280F0A8809E4B3A68D2B21A709C4B23
:101DCC001B6803F00F023B689A4201D0012369E1C2
:101DDC007B681B6803F00203002B08D0954B954AD7
:101DEC00926822F0F0017A6892680A439A607B68E4
:101DFC001B6803F00103002B00F031817B685B68EA
:101E0C00012B07D18B4B1B6803F40033002B1AD129
:101E1C00012347E17B685B68022B03D07B685B681E
:101E2C00032B08D1834B1B6803F00073002B01D1EB
:101E3C00012337E107E07F4B1B6803F00203002B03
:101E4C0001D101232EE17B4B7A4A926822F00301E7
:101E5C007A6852680A439A60FEF7CCFAF8607B689D
:101E6C005B68012B12D10AE0FEF7C4FA0246FB684C
:101E7C00D21A41F288339A4201D9032312E16D4BF5
:101E8C009B6803F00C03042BEED1E8E07B685B68E5
:101E9C00022B12D10AE0FEF7ADFA0246FB68D21A09
:101EAC0041F288339A4201D90323FBE0614B9B68D2
:101EBC0003F00C03082BEED1D1E07B685B68032B9D
:101ECC000ED101E00323EDE05A4B9B68FEF792FA2A
:101EDC000246FB68D21A41F288339A42F4D9F1E7F0
:101EEC000AE0FEF787FA0246FB68D21A41F2883301
:101EFC009A4201D90323D5E04E4B9B6803F00C03A7
:101F0C00002BEED1ABE07B681B6803F00203002BC7
:101F1C0008D0484B474A926822F0F0017A689268E0
:101F2C000A439A607B681B6803F00103002B00F0E6
:101F3C0089807B685B68012B07D13E4B1B6803F4DF
:101F4C000033002B1AD10123ACE07B685B68022BB9
:101F5C0003D07B685B68032B08D1364B1B6803F0FE
:101F6C000073002B01D101239CE007E0314B1B686F
:101F7C0003F00203002B01D1012393E02D4B2D4ADA
:101F8C00926822F003017A6852680A439A60FEF75D
:101F9C0031FAF8607B685B68012B12D10AE0FEF71E
:101FAC0029FA0246FB68D21A41F288339A4201D9C7
:101FBC00032377E01F4B9B6803F00C03042BEED13B
:101FCC0040E07B685B68022B12D10AE0FEF712FA44
:101FDC000246FB68D21A41F288339A4201D9032394
:101FEC0060E0144B9B6803F00C03082BEED129E046
:101FFC007B685B68032B0ED101E0032352E00D4B91
:10200C009B68FEF7F7F90246FB68D21A41F2883357
:10201C009A42F4D9F1E70FE0FEF7ECF90246FB68BF
:10202C00D21A41F288339A4206D903233AE000BF10
:10203C00003C0240003802401C4B9B6803F00C0330
:10204C00002BE9D11A4B3A68D2B21A70184B1B68A4
:10205C0003F00F023B689A4201D0012322E07B6817
:10206C001B6803F00403002B08D0104B0F4A926836
:10207C0022F4E0517A68D2680A439A607B681B6844
:10208C0003F00803002B09D0084B084A926822F48D
:10209C0060417A681269D2000A439A600F20FEF7F9
:1020AC007FF9002318461037BD4680BD003802402A
:1020BC00003C024080B48BB000AF0023FB610023D6
:1020CC007B620023BB6100233B62364B9B6803F0B1
:1020DC000C03042B06D0082B07D0002B58D1324B05
:1020EC003B6258E0314B3B6255E02E4B5B6803F092
:1020FC003F03FB612B4B5B6803F48003002B17D071
:10210C002A4AFB69B2FBF3F2264B596847F6C073B7
:10211C000B4047F6C0717961796991FAA1F1396187
:10212C003969B1FA81F1CB4003FB02F37B6216E013
:10213C001D4AFB69B2FBF3F21A4B596847F6C073A0
:10214C000B4047F6C071F960F96891FAA1F1B960DA
:10215C00B968B1FA81F1CB4003FB02F37B62114BFE
:10216C005B6803F440324FF440337B607B6893FA36
:10217C00A3F33B603B68B3FA83F322FA03F3013316
:10218C005B00BB617A6ABB69B2FBF3F33B6202E0B2
:10219C00054B3B6200BF3B6A18462C37BD465DF8C9
:1021AC00047B7047003802400024F40000127A00CF
:1021BC0080B582B000AFFFF77DFF02460C4B9B68E9
:1021CC0003F0F001F0237B607B6893FAA3F33B6090
:1021DC003B68B3FA83F321FA03F30649CB5CDA408C
:1021EC00054B1A60044B1B6818460837BD4680BD6A
:1021FC0000380240A43E00080C00002080B582B0DC
:10220C0000AFFFF7D5FF02460B4B9B6803F4E05180
:10221C004FF4E0537B607B6893FAA3F33B603B681D
:10222C00B3FA83F321FA03F30449CB5C22FA03F3E8
:10223C0018460837BD4680BD00380240A43E000851
:10224C0080B588B000AF78600023FB610023BB61D0
:10225C007B681B681B6803F00103002B0CBF002379
:10226C000123DBB2FB617B681B68DB6803F48073C2
:10227C00BB61FB69002B11D0BB69002B0ED07B68B6
:10228C001B681B687B617B681B685B687B617B6977
:10229C007B68DB6B43F001027B68DA637B681B684D
:1022AC001B6803F00203002B0CBF00230123DBB2DD
:1022BC00FB617B681B685B6903F00103BB61FB6915
:1022CC00002B11D0BB69002B0ED07B681B681B68E0
:1022DC003B617B681B685B683B613B697B68DB6BC4
:1022EC0043F004027B68DA637B681B681B6803F0AD
:1022FC000403002B0CBF00230123DBB2FB617B68C2
:10230C001B685B6903F00103BB61FB69002B11D0F7
:10231C00BB69002B0ED07B681B681B68FB607B685D
:10232C001B685B68FB60FB687B68DB6B43F002023D
:10233C007B68DA637B681B681B6803F00803002B5F
:10234C000CBF00230123DBB2FB617B681B685B695C
:10235C0003F00103BB61FB69002B11D0BB69002B9F
:10236C000ED07B681B681B68BB607B681B685B6856
:10237C00BB60BB687B68DB6B43F008027B68DA638D
:10238C007B681B681B6803F02003002B0CBF002329
:10239C000123DBB2FB617B681B68DB6803F0200365
:1023AC00BB61FB69002B05D0BB69002B02D07868A0
:1023BC0000F0F0F87B681B681B6803F08003002BAF
:1023CC000CBF00230123DBB2FB617B681B68DB685D
:1023DC0003F08003BB61FB69002B05D0BB69002BAC
:1023EC0002D0786800F046F87B681B681B6803F025
:1023FC004003002B0CBF00230123DBB2FB617B6885
:10240C001B68DB6803F04003BB61FB69002B05D044
:10241C00BB69002B02D0786800F088F87B68DB6B16
:10242C00002B06D07B68012283F83920786800F0F5
:10243C0017F82037BD4680BD80B483B000AF7860FC
:10244C000C37BD465DF8047B704700BF80B483B089
:10245C0000AF78600C37BD465DF8047B704700BF59
:10246C0080B483B000AF78600C37BD465DF8047B58
:10247C00704700BF80B485B000AF78600023FB606C
:10248C007B6893F83930DBB2FB60FB68122B02D00F
:10249C00FB68322B43D17B689B68B3F5805F19D105
:1024AC007B681B6ABB607B681B68BA681288C2F3C6
:1024BC0008025A607B681B69002B05D17B681B6A7C
:1024CC009A1C7B681A620EE07B681B6A5A1C7B683C
:1024DC001A6208E07B681A687B681B6A581C79686A
:1024EC0008621B7853607B68DB8C013B9AB27B687B
:1024FC00DA847B68DB8C002B0FD17B681B687A68D5
:10250C001268D26822F08002DA607B681B687A68F5
:10251C001268D26842F04002DA60002300E0022325
:10252C0018461437BD465DF8047B704780B582B001
:10253C0000AF78607B681B687A681268D26822F0FA
:10254C004002DA607B6893F83930DBB2322B04D16D
:10255C007B68222283F8392013E07B681B687A6839
:10256C001268D26822F48072DA607B681B687A6821
:10257C001268526922F001025A617B68012283F8C9
:10258C0039207868FFF758FF002318460837BD46F6
:10259C0080BD00BF80B584B000AF78600023FB60C5
:1025AC007B6893F83930DBB2FB60FB68222B02D0DE
:1025BC00FB68322B7CD17B689B68B3F5805F23D1A1
:1025CC007B689B6ABB607B681B69002B0ED17B68A8
:1025DC001B685B689BB2C3F308039AB2BB681A8092
:1025EC007B689B6A9A1C7B689A6229E07B681B68F3
:1025FC005B689BB2DBB29AB2BB681A807B689B6A41
:10260C005A1C7B689A621BE07B681B69002B0AD101
:10261C007B689B6A591C7A6891627A681268526866
:10262C00D2B21A700CE07B689B6A591C7A68916272
:10263C007A6812685268D2B202F07F02D2B21A7073
:10264C007B68DB8D013B9AB27B68DA857B68DB8D1E
:10265C00002B2BD17B681B687A681268D26822F039
:10266C002002DA607B6893F83930DBB2322B04D16C
:10267C007B68122283F8392013E07B681B687A6828
:10268C001268D26822F48072DA607B681B687A6800
:10269C001268526922F001025A617B68012283F8A8
:1026AC0039207868FFF7D2FE002302E0002300E017
:1026BC00022318461037BD4680BD00BF80B584B0DC
:1026CC0000AFFDF745FE0020FDF7C0FD0120FDF732
:1026DC00BDFD00F00BF93D4B3D4A1A603B4B4FF4EE
:1026EC0080421A61394B3B4A5A60384B00225A617E
:1026FC00364B00229A60354B0022DA61334B0022B4
:10270C001A62324B1022DA60304B11229A612F4838
:10271C00FEF7D4FB0346002B01D000F0E1F82E4B62
:10272C001B781846002100F067F82C4B1B781846D4
:10273C00082100F061F8FDF75DFEF8600023BB6036
:10274C00274B1B781846062100F084F8254B5B7844
:10275C001B029AB2234B1B7813439BB2FB80214B79
:10276C00DB781B029AB21F4B9B7813439BB2BB8046
:10277C001C4B5B791B029AB21A4B1B7913439BB20D
:10278C007B80FDF737FE0246FB68D31AB3F57A7FE0
:10279C0017D9FB881448194600F0DAFABB8813489D
:1027AC00194600F0D5FA7B881148194600F0D0FA8A
:1027BC001048B96800F0CCFA0023BB60FDF71AFE94
:1027CC00F860BB680133BB60BAE700BFF4010020BE
:1027DC00005C0040801A0600090000200800002060
:1027EC000A00002070020020683E0008703E0008BD
:1027FC00783E0008803E000880B582B000AF0246EB
:10280C000B46FA71BB71114BFA791A700F4BBA79EE
:10281C005A7007E00E48FEF773FD0346042B01D0F7
:10282C0000F05EF80A483A21084A0223FEF720FC21
:10283C000346002BEED100BF0548FEF753FD0346BF
:10284C00012BF9D10837BD4680BD00BF9400002094
:10285C00F401002080B582B000AF02460B46FA713D
:10286C00BB711C4BFA791A7007E01B48FEF748FD48
:10287C000346042B01D000F033F817483A21154ACF
:10288C000123FEF7F5FB0346002BEED100BF1248E7
:10289C00FEF728FD0346012BF9D107E00E48FEF7A1
:1028AC002FFD0346042B01D000F01AF80A483A21F8
:1028BC000A4A0623FEF76EFC0346002BEED100BF3E
:1028CC000548FEF70FFD0346012BF9D10837BD462D
:1028DC0080BD00BF94000020F40100207002002095
:1028EC0080B500AF0120FDF701FDFEE780B594B087
:1028FC0000AF234B224A126C42F080521A64204BD8
:10290C001B6C03F08053BB60BB681E4B1D4A1268E6
:10291C0042F440421A601B4B1B6803F440437B603B
:10292C007B680123FB6001233B6102237B624FF434
:10293C008003BB620823FB624FF4B4733B63022336
:10294C007B630723BB6307F10C031846FEF7DEFF1E
:10295C00FEF778FF0F23FB6302233B6400237B64A9
:10296C004FF4A053BB644FF48053FB6407F13C035A
:10297C0018460521FFF710FA5037BD4680BD00BF41
:10298C00003802400070004080B582B000AF786023
:10299C000020FDF7C5FC0837BD4680BD80B582B070
:1029AC0000AF78600020FDF7BBFC0837BD4680BD4A
:1029BC0080B582B000AF78600120FDF797FC083736
:1029CC00BD4680BD80B58CB000AF7860634B634A68
:1029DC00126B42F001021A63604B1B6B03F0010394
:1029EC00BB61BB695D4B5D4A126B42F004021A631A
:1029FC005A4B1B6B03F004037B617B69574B574AA3
:102A0C00126C42F400021A64544B1B6C03F4000366
:102A1C003B613B69514B514A126B42F400121A63F1
:102A2C004E4B1B6B03F40013FB60FB684FF480737D
:102A3C00FB6112233B6201237B620223BB620423F2
:102A4C00FB6207F11C0346481946FEF765F84FF484
:102A5C000073FB610423FB6207F11C034148194618
:102A6C00FEF75AF8404B414A1A603F4B4FF0007248
:102A7C005A603D4B40229A603B4B0022DA603A4B45
:102A8C004FF480621A61384B00225A61364B002297
:102A9C009A61354B0022DA61334B00221A62324BB9
:102AAC0000225A62304B03229A622F4B4FF40002E1
:102ABC00DA622D4B4FF400121A632B48FDF7AEFD72
:102ACC007B68294ADA62284B7A689A63284B294A30
:102ADC001A60274B4FF000725A60254B00229A6007
:102AEC00234B0022DA60224B4FF480621A61204B98
:102AFC0000225A611E4B00229A611D4B0022DA61A2
:102B0C001B4B4FF400321A62194B00225A62184BBD
:102B1C0003229A62164B4FF40002DA62144B4FF404
:102B2C0000121A631248FDF779FD7B68104A1A638C
:102B3C000F4B7A689A630F2000210122FDF738FDB4
:102B4C000F20FDF751FD0D2000210022FDF730FD77
:102B5C000D20FDF749FD3037BD4680BD00380240E1
:102B6C000000024000080240980000207060024003
:102B7C00F00000204060024080B400AFBD465DF81C
:102B8C00047B704780B400AFFEE700BF80B400AF99
:102B9C00FEE700BF80B400AFFEE700BF80B400AF1B
:102BAC00FEE700BF80B400AFBD465DF8047B704704
:102BBC0080B400AFBD465DF8047B704780B400AFB5
:102BCC00BD465DF8047B704780B500AFFDF704FC93
:102BDC0080BD00BF80B500AF024B5B6B1846FDF7A4
:102BEC00CBFD80BD3002002080B500AF024B1B6BCB
:102BFC001846FDF7C1FD80BD3002002080B500AF46
:102C0C000148FFF71DFB80BD3002002080B500AFEE
:102C1C00024B1B6B1846FDF7AFFD80BDF401002085
:102C2C0080B500AF024BDB6A1846FDF7A5FD80BDF1
:102C3C00F401002080B400AF164B164AD2F888205D
:102C4C0042F47002C3F88820134B134A126842F006
:102C5C0001021A60104B00229A600F4A0E4B1B683F
:102C6C0023F0847323F4803313600B4B0B4A5A60AC
:102C7C00094B094A126822F480221A60064B002282
:102C8C00DA60044B4FF000629A60BD465DF8047B3D
:102C9C00704700BF00ED00E0003802401030002407
:102CAC00DFF834D0002103E00C4B5B584350043167
:102CBC000B480C4B42189A42F6D30B4A02E0002305
:102CCC0042F8043B094B9A42F9D3FFF7B3FF00F0EB
:102CDC0011F8FFF7F3FC7047FFFF0220583F000884
:102CEC0000000020740000207400002078020020F6
:102CFC00FEE7000070B50E4B0E4DED1AAD10002422
:102D0C001E46AC4204D056F8242090470134F8E714
:102D1C0001F098F8084D094BED1AAD1000241E4631
:102D2C00AC4204D056F8242090470134F8E770BD2B
:102D3C00503F0008503F0008543F0008503F000827
:102D4C0002440346934202D003F8011BFAE7704792
:102D5C000FB40A4B13B51C6824B1A36913B92046F0
:102D6C0000F04EF805AB2046A168049A019300F0E0
:102D7C004FF902B0BDE8104004B07047700000205D
:102D8C00014900F0A9B800BF95340008002310B524
:102D9C00044603604360836081814366C2810361A2
:102DAC004361836119465C300822FFF7C9FF054B6C
:102DBC006362054BA362054BE362054B24622363FC
:102DCC0010BD00BF45320008673200089F32000872
:102DDC00C332000870B54B1E68255D430E4605F1E5
:102DEC00740100F097F8044640B1002180E84200DD
:102DFC000C30A06005F16802FFF7A2FF204670BD01
:102E0C00836910B5044633BB8364C3640365124BFA
:102E1C00124A1B688262984204BF0123836100F04E
:102E2C001FF86060204600F01BF8A060204600F000
:102E3C0017F80421E06000226068FFF7A7FFA06884
:102E4C0009210122FFF7A2FFE06812210222FFF7FD
:102E5C009DFF0123A36110BDB83E00088D2D000815
:102E6C00F8B51B4B1E68B369074613B93046FFF71C
:102E7C00C7FF4836B4687368013B04D4B4F90C50EE
:102E8C0075B16834F8E733682BB938460421FFF77D
:102E9C00A1FF306008B13668ECE70C233B60F8BD4D
:102EAC004FF6FF73E3810123A38165662560A5605E
:102EBC00656025616561A56104F15C002946082205
:102ECC00FFF73EFF6563A563A564E5642046F8BD86
:102EDC00B83E0008704770472DE9F8438046894694
:102EEC0000F14804002694B1A5686768013F0CD432
:102EFC00AB89012B07D9B5F90E30013303D040460D
:102F0C002946C84706436835F0E72468EBE73046A6
:102F1C00BDE8F88370B5CD1C25F0030508350C2DE4
:102F2C0038BF0C25002D064603DA0C233360002035
:102F3C0070BD8D42F9D3204B1C6818462146A1B1B7
:102F4C000B685B1B0ED40B2B03D90B60CC18CD502C
:102F5C001FE08C4202D1626802601AE04B68636029
:102F6C000C4616E00C464968E9E7144C23681BB97B
:102F7C00304600F051F920602946304600F04CF9FB
:102F8C00431C0146D1D0C41C24F0030484420AD152
:102F9C00256004F10B00231D20F00700C31A09D093
:102FAC005A42E25070BD3046611A00F035F90130DA
:102FBC00EED1BAE770BD00BF4C01002048010020E3
:102FCC009368013B002B10B5936005DA9469A3421A
:102FDC0008DBCBB20A2B05D01368581C1060197093
:102FEC00C8B210BDBDE8104000F06AB9F8B505468E
:102FFC000E461446D718BC4208D0284614F8011BBC
:10300C003246FFF7DDFF431CF5D100E00020F8BD90
:10301C002DE9F0439DB00D4617460393064618B1B3
:10302C0083690BB9FFF7ECFE734B9D4201D17568B8
:10303C0008E0724B9D4201D1B56803E0704B9D4294
:10304C0008BFF568AB8918070AD52B6943B1002373
:10305C00099320238DF8293030238DF82A3038E05D
:10306C003046294600F092F90028F0D04FF0FF309E
:10307C00BFE0039A111D12680391002A70DB0792BE
:10308C00013423782E2B7DD05E4F217838460322D5
:10309C0000F05AFB30B1C71B049B4020B8400343DF
:1030AC0004930134217858488DF828100622671CA7
:1030BC0000F04AFB002800F08A80544B002B7DD195
:1030CC00039B073323F0070308330393099B434403
:1030DC0009933B461C4613F8012B1AB9B4EB0709AC
:1030EC000ED002E0252AF5D1F8E7304629463A46BB
:1030FC004B46FFF77BFF013076D0099B4B4409937D
:10310C002378002B70D000234FF0FF3204930793E9
:10311C00059206938DF853301A9304F101094C462D
:10312C003B4F21783846052200F00EFB09F10109CE
:10313C00049B28B1C71B0120B84003430493EEE75E
:10314C00D90644BF20228DF853201A0744BF2B22E6
:10315C008DF8532022782A2A8BD0079B214605E034
:10316C00524243F002030792049389E70C46013163
:10317C002278303A092A03D80A2000FB0323F5E70A
:10318C0007937EE763782A2B0AD1039B1A1D1B68D1
:10319C000392002B04F10204B8BF4FF0FF330BE095
:1031AC00611C00230C4601312278303A092A03D8DD
:1031BC000A2000FB0323F5E7059365E703AB0093B7
:1031CC00304604A92A46134BAFF3008007E003AB4B
:1031DC000093304604A92A460E4B00F07BFBB0F15D
:1031EC00FF3F80467FF472AFAB895B063FF53EAF85
:1031FC0009981DB0BDE8F083BC3E0008DC3E000819
:10320C00FC3E0008223F0008263F0008000000009A
:10321C001C3F0008F92F000838B5064C0023054662
:10322C000846236000F0A2FD431C02D1236803B1C1
:10323C002B6038BD7402002010B50C46B1F90E108D
:10324C0000F05EFC002803DB636D0344636510BD76
:10325C00A38923F48053A38110BD2DE9F0411D46B1
:10326C008B89DB0507460C46164605D5B1F90E10C1
:10327C000022022300F008FAA389B4F90E1023F4FB
:10328C008053A381384632462B46BDE8F04100F00E
:10329C006BB810B50C46B1F90E1000F0F5F9431CE3
:1032AC00A38903D123F48053A38110BD43F480532D
:1032BC00A381606510BDB1F90E1000F0D5B8000007
:1032CC0070B50E461446054618B183690BB9FFF765
:1032DC0097FD224B9C4201D16C6808E0204B9C422C
:1032EC0001D1AC6803E01F4B9C4208BFEC68A3699A
:1032FC00A360A3891A0709D523693BB12369206808
:10330C00C01A63699842F6B20FDB08E028462146E2
:10331C0000F03CF80028F1D04FF0FF3070BD28468B
:10332C00214600F087F90028F6D1A368013BA36081
:10333C0023685A1C22601E7063690130984204D0C5
:10334C00A389DB0707D50A2E05D12846214600F0B4
:10335C0071F90028E0D1304670BD00BFBC3E0008BA
:10336C00DC3E0008FC3E000838B5074C0546002042
:10337C002060084611461A4600F0A5FC431C02D1F9
:10338C00236803B12B6038BD74020020324B70B53A
:10339C001D6806460C4625B1AB6913B92846FFF7E4
:1033AC002FFD2E4B9C4201D16C6808E02C4B9C42AB
:1033BC0001D1AC6803E02B4B9C4208BFEC68A2899E
:1033CC0093B2190720D4DD0605D4092342F040023C
:1033DC003360A2813BE0580712D5616B41B104F117
:1033EC004403994202D0304600F0BEF900236363D7
:1033FC00A38923F02403A381002363602369236042
:10340C00A38943F00803A38123694BB9A38903F46F
:10341C002073B3F5007F03D03046214600F046F907
:10342C00A38913F0010205D00022A2606269524206
:10343C00A26103E0990758BF6269A26022694AB988
:10344C0003F0800080B230B143F04003A3814FF011
:10345C00FF3070BD002070BD70000020BC3E000825
:10346C00DC3E0008FC3E000838B5064C002305463F
:10347C000846236000F056FC431C02D1236803B1BC
:10348C002B6038BD7402002070B505460C4609B996
:10349C00002070BD18B183690BB9FFF7B1FC204B4C
:1034AC009C4201D16C6808E01E4B9C4201D1AC6877
:1034BC0003E01D4B9C4208BFEC68B4F90C30002BA8
:1034CC00E6D02846214600F031F8236B064633B18E
:1034DC002846216A98470028B8BF4FF0FF36A389C9
:1034EC001B0603D52846216900F03EF9616B41B1FA
:1034FC0004F14403994202D0284600F035F9002328
:10350C006363A16C21B1284600F02EF90023A3645B
:10351C00FFF7E0FC0023A381FFF7DDFC304670BD14
:10352C00BC3E0008DC3E0008FC3E00088A892DE900
:10353C00F041054610070C4657D44B68002B02DCB3
:10354C000B6C002B18DDE66AB6B102F48052002336
:10355C0092B22F682B600AB1626D10E0216A284686
:10356C000123B047411C024609D12B683BB11D2BEE
:10357C0001D0162B46D12F600020BDE8F081A38925
:10358C005B0705D56368D21A636B0BB1236CD21A37
:10359C00E66A216A28460023B047461CA28905D159
:1035AC002B681BB11D2B01D0162B19D10023636086
:1035BC00D1042369236004D5421C01D12B6803B9C3
:1035CC006065616B2F600029D6D004F144039942E9
:1035DC0002D0284600F0C8F800206063BDE8F081F6
:1035EC0042F04002A281BDE8F0810E69002EC3D0EA
:1035FC000B680E60C6EB030893070CBF4B690023E6
:10360C008B6012E0A38943F04003A3814FF0FF309D
:10361C00BDE8F081A76A216A284632464346B8477E
:10362C000028EFDD0644C0EB0808B8F1000FF1DC10
:10363C00A2E7000038B50B6905460C46DBB118B1A2
:10364C0083690BB9FFF7DCFB0C4B9C4201D16C6816
:10365C0008E00B4B9C4201D1AC6803E0094B9C4247
:10366C0008BFEC68B4F90C302BB128462146BDE8F4
:10367C003840FFF75BBF002038BD00BFBC3E0008E0
:10368C00DC3E0008FC3E000838B5074C054600201F
:10369C002060084611461A4600F003FB431C02D179
:1036AC00236803B12B6038BD74020020F0B58B8900
:1036BC009E0791B005460C4626D4B1F90E10002990
:1036CC0009DAA38913F0800F4FF0000714BF4026CE
:1036DC004FF480660DE001AA00F02CFA0028F0DB14
:1036EC00029F07F47047B7F500514F424F414FF41A
:1036FC00806628463146FFF70DFC60B9A3899A0510
:10370C001DD443F00203A38104F14703236023611A
:10371C000123636113E00B4BAB62A389206043F080
:10372C008003A381206166614FB12846B4F90E1065
:10373C0000F012FA18B1A38943F00103A38111B070
:10374C00F0BD00BF8D2D000810B5C9B202449042E7
:10375C00034606D01C788C4200F10100F7D11846C4
:10376C0010BD002010BD000030B500293CD051F830
:10377C00042C0B1F1D49002AB8BF9B180A680C4665
:10378C0012B95A600B6030BD93420DD219685818AB
:10379C00904203D15A581144426819605A60236010
:1037AC0030BD994203D80A4651680029F9D11468F2
:1037BC0015199D420AD11B682344D0188842136006
:1037CC0012D10868034413604B680CE002D90C2337
:1037DC00036030BD18681C188C4203D10C68496812
:1037EC00204418605960536030BD00BF4C0100206C
:1037FC002DE9F84315461F468A680B69DDF82080D1
:10380C009A42A8BF13462B6091F8432006460C46FB
:10381C000AB101332B602368990602D52B68023359
:10382C002B60236813F006091DD094F843302268EE
:10383C00003318BF012392061FD5E1185A1C302003
:10384C0081F84300224494F8451082F84310023367
:10385C0013E03046394604F119020123C047013008
:10386C0007D009F10109E2682B68D31A9945F0DBFE
:10387C00DBE74FF0FF30BDE8F8833046394604F102
:10388C004302C0470130F4D023682A68E16803F092
:10389C000603042B08BFC2EB01052369A2680CBF09
:1038AC0025EAE57500259A42C4BFC3EB0203ED1867
:1038BC004FF00009A9450ADA3046394604F11A02DC
:1038CC000123C0470130D4D009F10109F2E70020EF
:1038DC00BDE8F8832DE9FF470E7E0C9D6E2E8046C9
:1038EC000C4691469A4601F1430000F0A58011D890
:1038FC00632E22D009D8002E00F0B280582E40F052
:10390C00C28081F845607C4A4FE0642E1ED0692E3F
:10391C001CD0B8E0732E00F0A78009D86F2E2BD0E6
:10392C00702E40F0B0800B6843F020030B6038E041
:10393C00752E21D0782E34D0A5E02B681A1D1B686B
:10394C002A6001F1420781F84230A0E022682B681E
:10395C0012F0800F03D01A1D2A601D6805E057066F
:10396C00F9D51A1D2A60B3F90050002D39DA2D2330
:10397C006D4284F8433034E022682B6812F0800FDB
:10398C0003D01A1D2A601D6804E05606F9D51A1DCD
:10399C002A601D88237E584A6F2B14BF0A230823E4
:1039AC001BE07823554A84F845302368296813F0C6
:1039BC00800F01F104062E6001D00D6802E05D0657
:1039CC00FBD50D88D90744BF43F0200323601DB9F4
:1039DC00236823F0200323601023002184F8431074
:1039EC0001E0454A0A236668A660002E03DB2168C5
:1039FC0021F00401216005B96EB104F14201B5FB5F
:103A0C00F3F603FB16550F46555D01F80159354683
:103A1C00002EF4D100E00746082B0AD12368DA0700
:103A2C0007D5626823699A4203DC302307F8013C0E
:103A3C00013FC01B20612FE009682B68626911F0FF
:103A4C00800F03D0191D29601B6808E011F0400F8E
:103A5C0003F1040129601B6801D01A8000E01A6090
:103A6C0000232361074617E02B681A1D2A601F6884
:103A7C00384600F057F863682061984288BF23618C
:103A8C002369636005E004F1420784F84260012376
:103A9C002361002384F84330CDF800A04046214632
:103AAC0003AA4B46FFF7A4FE013002D14FF0FF30C2
:103ABC001FE0404649463A462369D0470130F5D0CD
:103ACC0023689B0705D4E068039B9842B8BF18464F
:103ADC000FE00025E268039BD31A9D42F3DA4046BF
:103AEC00494604F119020123D0470130DED00135DB
:103AFC00F0E704B0BDE8F0872D3F00083E3F00081A
:103B0C0038B5074C054600202060084611461A4679
:103B1C0000F06FF8431C02D1236803B12B6038BD51
:103B2C0074020020034613F8012B002AFBD1181A4B
:103B3C000138704738B5074C002305460846114636
:103B4C00236000F04EF9431C02D1236803B12B60B3
:103B5C0038BD00BF7402002038B5064C0023054662
:103B6C000846236000F04BF9431C02D1236803B1D3
:103B7C002B6038BD740200200A4B10B5044618683F
:103B8C0018B183690BB9FFF73BF9132C07D806481A
:103B9C0050F83430013302D000EBC40010BD0020CB
:103BAC0010BD00BF7000002054010020F8B5044681
:103BBC0000F042F900270546132630463946ABBEC5
:103BCC0006462E602046F8BD431C01D1FFF7EEBF20
:103BDC00704730B585B001AD019002910392062477
:103BEC0020462946ABBE04462046FFF7EDFF05B044
:103BFC0030BD70B50E461546FFF7BEFF044630B912
:103C0C0000F01AF9092303604FF0FF3070BD006813
:103C1C0031462A46FFF7DDFF431C03D06368281AA0
:103C2C000344636070BDF7B50C461646FFF7A4FF5E
:103C3C00054618B900F000F9092304E0022E06D954
:103C4C0000F0FAF8162303604FF0FF3027E0012E46
:103C5C0003D14368E41812D5F2E7022E0FD102AE5D
:103C6C00036846F8083D0C2738463146ABBE06467D
:103C7C003046FFF7A9FF431C18BF2418E4D02B686B
:103C8C006F468DE818000A2630463946ABBE06460C
:103C9C003046FFF799FF0028D6DB6C60204603B056
:103CAC00F0BDFFF7C0BF30B585B001AD01900291FA
:103CBC000392052420462946ABBE04462046FFF756
:103CCC0083FF05B030BD70B50E461546FFF754FFA7
:103CDC00044620B900F0B0F80923036011E0006835
:103CEC0031462A46FFF7DFFF031E0ADB6268E81A3B
:103CFC0002449D42626006D10020BDE87040FFF78F
:103D0C0055BF4FF0FF3070BD37B502AC022544F8FB
:103D1C00040D28462146ABBE04462046FFF754FF4F
:103D2C0003B030BD38B50546FFF726FF044630B961
:103D3C0000F082F8092303604FF0FF3038BD013DDD
:103D4C00012D09D8084B9A681B699A4204D14FF08F
:103D5C00FF330360002038BD2068FFF7D5FF10B992
:103D6C004FF0FF33236038BD5401002008B50A4BD7
:103D7C001A680AB9094A1A601B686A4618449042C4
:103D8C0006D900F059F80C2303604FF0FF3008BD42
:103D9C00014A1060184608BD50010020780200202E
:103DAC0070B50C46FFF7E8FE054630B900F044F854
:103DBC00092303604FF0FF3070BD636843F4005378
:103DCC0063604FF48063E3620C2630462946ABBE39
:103DDC0005462846FFF7F8FE431C1CBF2061002057
:103DEC0070BD38B53C2205460C4608460021FEF74E
:103DFC00A7FF28462146BDE83840FFF7D1BF70B574
:103E0C00FFF7BAFE0925044618B900F015F805604D
:103E1C000FE028462146ABBE0446012C09D000F029
:103E2C000BF800240546132630462146ABBE064649
:103E3C002E60204670BD0000014B1868704700BF13
:103E4C0070000020F8B500BFF8BC08BC9E46704757
:0C3E5C00F8B500BFF8BC08BC9E467047DB
:103E6800783A20256400000020793A202564000073
:103E7800207A3A2025640000206C6F6F70207065EE
:103E880072207365636F6E643A2025640A0000002F
:103E98000020004000061016000610160000000062
:103EA8000102030401020304060708094300000095
:103EB80010000020000000000000000000000000CA
:103EC80000000000000000000000000000000000EA
:103ED80000000000000000000000000000000000DA
:103EE80000000000000000000000000000000000CA
:103EF80000000000000000000000000000000000BA
:103F080000000000000000000000000000000000A9
:103F180000000000232D302B2000686C4C006566E3
:103F28006745464700303132333435363738394102
:103F38004243444546003031323334353637383918
:083F480061626364656600001C
:043F5000250200083E
:043F5400FD01000863
:103F580000180240001802402D3132000024F400FD
:103F680000000000BC3E0008DC3E0008FC3E0008E3
:103F78000000000000000000000000000000000039
:103F8800B43E00080000000000000000000000002F
:103F98000000000000000000000000000000000019
:103FA8000000000000000000000000000000000009
:103FB80000000000000000000000000000000000F9
:043FC80010000020C5
:0400000508002CAD16
:00000001FF
