:020000040800F2
:10000000FFFF0220F52A0008F5290008012A000850
:10001000092A0008112A0008192A00080000000017
:10002000000000000000000000000000212A00087D
:100030002D2A000800000000392A0008452A00087F
:10004000452B0008452B0008452B0008452B0008D0
:10005000452B0008452B0008452B0008452B0008C0
:10006000452B0008452B0008452B0008452B0008B0
:10007000452B0008452B0008452B0008452B0008A0
:10008000452B0008452B0008452B0008452B000890
:10009000452B0008452B0008452B0008452B000880
:1000A000452B0008452B0008452B0008452B000870
:1000B000452B0008452B0008452B0008452B000860
:1000C000452B0008452B0008452B0008452B000850
:1000D000452B0008792A0008452B0008452B00080D
:1000E000452B0008452B0008452B0008452B000830
:1000F000452B0008452B0008452B0008452B000820
:10010000452B0008452B0008452B0008452B00080F
:10011000452B0008452B0008452B0008452B0008FF
:10012000452B0008452B0008452B0008452B0008EF
:10013000452B0008452B0008452B0008452B0008DF
:10014000452B0008452B0008452B0008452B0008CF
:10015000512A0008452B0008652A0008452B000895
:10016000452B0008452B0008452B0008452B0008AF
:10017000452B0008452B0008452B00080000000017
:10018000452B0008452B0008452B0008452B00088F
:10019000452B0008452B0008452B0008452B00087F
:0C01A000452B0008452B0008452B0008EB
:1001AC0008B50548054B1B1A062B00D808BD044B97
:1001BC00002BFBD09847F9E70C0000200F00002023
:1001CC000000000008B50748074B1B1A9B1003EBF7
:1001DC00D373591000D108BD044A002AFBD09047B4
:1001EC00F9E700BF0C0000200C000020000000000C
:1001FC0010B5064C237843B9FFF7D2FF044B13B16B
:10020C000448AFF300800123237010BD0C000020C4
:10021C0000000000942B000808B5074B1BB10748E1
:10022C000749AFF300800748036813B1064B03B1CD
:10023C009847BDE80840C5E700000000942B000873
:10024C00100000200C0000200000000080B58AB0D7
:10025C0000AF0346FB71FB79002B0CD1204B204ADD
:10026C00126B42F040021A631D4B1B6B03F04003F0
:10027C003B613B690EE0FB79012B0BD1184B184A03
:10028C00126B42F040021A63154B1B6B03F04003D8
:10029C00FB60FB68FA79134B33F812307B61012356
:1002AC00BB610123FB6102233B62FA790E4B53F8CD
:1002BC00222007F114031046194600F015FCFA79B8
:1002CC00094B53F82220F979064B33F811301046BC
:1002DC001946002200F0B0FD2837BD4680BD00BF96
:1002EC0000380240AC2B00080000002080B582B022
:1002FC0000AF0346FB71FA79074B53F82220F979CA
:10030C00064B33F8113010461946012200F094FDCB
:10031C000837BD4680BD00BF00000020AC2B000894
:10032C0080B500AF0E4B0E4A126842F400721A6090
:10033C000B4B0B4A126842F480621A60084B084A55
:10034C00126842F480721A60032000F00FF90F203B
:10035C0000F00EF800F006F80023184680BD00BF30
:10036C00003C024080B400AFBD465DF8047B704792
:10037C0080B582B000AF786001F004FF0246094BF3
:10038C00A3FB02139B09184600F024F94FF0FF3031
:10039C007968002200F0F4F8002318460837BD46AF
:1003AC0080BD00BFD34D621080B400AF044B1B68FE
:1003BC005A1C034B1A60BD465DF8047B704700BFA6
:1003CC002800002080B400AF034B1B681846BD46C4
:1003DC005DF8047B704700BF2800002080B485B016
:1003EC0000AF78607B6803F00703FB600C4BDB68A5
:1003FC00BB60BA684FF6FF031340BB60FB681A0280
:10040C00BB68134343F0BF6343F40033BB60044B3E
:10041C00BA68DA601437BD465DF8047B704700BFDC
:10042C0000ED00E080B400AF044BDB6803F4E06344
:10043C001B0A1846BD465DF8047B704700ED00E0D2
:10044C0080B483B000AF0346FB71084B97F90720CB
:10045C005209F97901F01F01012000FA01F143F86A
:10046C0022100C37BD465DF8047B704700E100E0BC
:10047C0080B483B000AF03463960FB7197F9073045
:10048C00002B0BDA0D49FB7903F00F03043B3A68A0
:10049C00D2B21201D2B20B441A7609E0084997F98C
:1004AC0007303A68D2B21201D2B20B4483F800235F
:1004BC000C37BD465DF8047B704700BF00ED00E0D3
:1004CC0000E100E080B489B000AFF860B9607A60F8
:1004DC00FB6803F00703FB61FB69C3F10703042B03
:1004EC0028BF0423BB61FB690433062B02D9FB69CB
:1004FC00033B00E000237B61BB69012202FA03F39A
:10050C005A1EBB681A407B699A407B69012101FA2B
:10051C0003F3591E7B680B40134318462437BD4622
:10052C005DF8047B704700BF80B582B000AF786087
:10053C007B68013BB3F1807F01D301230FE00A4BB1
:10054C007A68013A5A604FF0FF300F21FFF790FFA5
:10055C00054B00229A60044B07221A6000231846B0
:10056C000837BD4680BD00BF10E000E080B582B00A
:10057C0000AF78607868FFF731FF0837BD4680BD63
:10058C0080B586B000AF0346B9607A60FB73002378
:10059C007B61FFF747FF78617869B9687A68FFF784
:1005AC0091FF034697F90F2010461946FFF760FF9D
:1005BC001837BD4680BD00BF80B582B000AF034682
:1005CC00FB7197F907301846FFF73AFF0837BD461D
:1005DC0080BD00BF80B582B000AF78607868FFF74F
:1005EC00A3FF034618460837BD4680BD80B584B0CE
:1005FC0000AF78600023FB607B68002B01D10123E6
:10060C005AE07B68022283F835207B681B681B68E4
:10061C00FB60FA682A4B1340FB607B685A687B6866
:10062C009B681A437B68DB681A437B681B691A4317
:10063C007B685B691A437B689B691A437B68DB693F
:10064C001A437B681B6A1343FA681343FB607B688D
:10065C005B6A042B07D17B68DA6A7B681B6B1343DC
:10066C00FA681343FB607B681B68FA681A607B6846
:10067C001B685B69FB60FB6823F00703FB607B680E
:10068C005B6AFA681343FB607B685B6A042B04D1DA
:10069C007B689B6AFA681343FB607B681B68FA688B
:1006AC005A61786800F0EAF97B680022DA647B68AA
:1006BC00012283F83520002318461037BD4680BD33
:1006CC003F8010F080B584B000AFF860B9607A60FC
:1006DC003B60FB6893F83430012B01D102232EE0F0
:1006EC00FB68012283F83420FB68022283F8352052
:1006FC00FB681B68FA681268126822F001021A6023
:10070C00F868B9687A683B6800F08AF9FB681B687E
:10071C00FA681268126842F01E021A60FB681B68C5
:10072C00FA681268526942F080025A61FB681B68D1
:10073C00FA681268126842F001021A600023184627
:10074C001037BD4680BD00BF80B584B000AF786067
:10075C007B681B6DFB60FB681A687B685B6D08210E
:10076C0001FA03F31340002B2AD07B681B681B682B
:10077C0003F00403002B23D07B681B687A68126893
:10078C00126822F004021A607B685B6D08229A40A2
:10079C00FB689A607B68DB6C43F001027B68DA646F
:1007AC007B68042283F835207B68002283F8342090
:1007BC007B689B6C002B03D07B689B6C786898479C
:1007CC00FB681A687B685B6D934901FA03F313406D
:1007DC00002B2AD07B681B685B6903F08003002B1D
:1007EC0023D07B681B687A681268526922F08002F9
:1007FC005A617B685B6D884A9A40FB689A607B689B
:10080C00DB6C43F002027B68DA647B68042283F8B9
:10081C0035207B68002283F834207B689B6C002B8E
:10082C0003D07B689B6C78689847FB681A687B6878
:10083C005B6D7A4901FA03F31340002B2AD07B68D5
:10084C001B681B6803F00203002B23D07B681B681A
:10085C007A681268126822F002021A607B685B6D7B
:10086C006E4A9A40FB689A607B68DB6C43F004022A
:10087C007B68DA647B68042283F835207B6800226D
:10088C0083F834207B689B6C002B03D07B689B6CBB
:10089C0078689847FB681A687B685B6D102101FAD1
:1008AC0003F31340002B4CD07B681B681B6803F0D0
:1008BC000803002B45D07B681B681B6803F480235E
:1008CC00002B1DD07B685B6D10229A40FB689A60F0
:1008DC007B681B681B6803F40023002B04D17B6826
:1008EC00312283F8352024E07B681B681B6803F4F5
:1008FC000023002B1DD07B68412283F8352018E0A3
:10090C007B681B681B6803F48073002B07D17B6822
:10091C001B687A681268126822F008021A607B68F9
:10092C005B6D10229A40FB689A607B68312283F8D9
:10093C0035207B681B6C002B03D07B681B6C7868A4
:10094C009847FB681A687B685B6D202101FA03F3FA
:10095C001340002B5CD07B681B681B6803F01003F2
:10096C00002B55D07B681B681B6803F48023002B7D
:10097C0025D07B685B6D20229A40FB689A607B686F
:10098C001B681B6803F40023002B08D17B685B6C8D
:10099C00002B3DD07B685B6C7868984738E07B68AF
:1009AC001B681B6803F40023002B31D07B68DB6BC6
:1009BC00002B2DD07B68DB6B7868984728E07B6830
:1009CC001B681B6803F48073002B07D17B681B68C2
:1009DC007A681268126822F010021A607B685B6DEC
:1009EC0020229A40FB689A607B68DA6C7B68DA6438
:1009FC007B68112283F835207B68002283F8342031
:100A0C007B68DB6B002B03D07B68DB6B78689847CB
:100A1C001037BD4680BD00BF01008000040080007F
:100A2C0080B485B000AFF860B9607A603B60FB6859
:100A3C001B68FA681268126822F480221A60FB683C
:100A4C001B683A685A60FB689B68402B08D1FB68AE
:100A5C001B687A689A60FB681B68BA68DA6007E002
:100A6C00FB681B68BA689A60FB681B687A68DA6076
:100A7C001437BD465DF8047B704700BF80B485B069
:100A8C0000AF78607B681B68DBB2A3F11002144BDB
:100A9C00A3FB02131B09FB60124AFB6813441B786F
:100AAC001A467B685A65FB68032B09D97B681B685F
:100ABC0023F47F7323F003031A1D7B681A6507E088
:100ACC007B681B6823F47F7323F003037A68136538
:100ADC007B681B6D18461437BD465DF8047B704768
:100AEC00ABAAAAAAB02B000880B489B000AF78607A
:100AFC00396000237B6100233B610023BB61002331
:100B0C00FB6175E1FB69012202FA03F37B613B682F
:100B1C001A687B6913403B613A697B699A4240F0E1
:100B2C0064813B685B68022B03D03B685B68122BCB
:100B3C0023D1FB69DA087B68083253F82230BB6199
:100B4C00FB6903F007039B000F2202FA03F3DB435C
:100B5C00BA691340BB613B681A69FB6903F0070370
:100B6C009B0002FA03F3BA691343BB61FB69DA0811
:100B7C007B680832B96943F822107B681B68BB613B
:100B8C00FB695B00032202FA03F3DB43BA691340EF
:100B9C00BB613B685B6803F00302FB695B0002FA14
:100BAC0003F3BA691343BB617B68BA691A603B688B
:100BBC005B68012B0BD03B685B68022B07D03B6852
:100BCC005B68112B03D03B685B68122B30D17B68C0
:100BDC009B68BB61FB695B00032202FA03F3DB43F6
:100BEC00BA691340BB613B68DA68FB695B0002FAC7
:100BFC0003F3BA691343BB617B68BA699A607B687B
:100C0C005B68BB61FB69012202FA03F3DB43BA693F
:100C1C001340BB613B685B6803F010031A09FB6966
:100C2C0002FA03F3BA691343BB617B68BA695A6071
:100C3C007B68DB68BB61FB695B00032202FA03F390
:100C4C00DB43BA691340BB613B689A68FB695B0084
:100C5C0002FA03F3BA691343BB617B68BA69DA60C1
:100C6C003B685B6803F08053002B00F0BE80654B43
:100C7C00644A526C42F480425A64624B5B6C03F4DB
:100C8C008043FB60FB68604BFA699208023253F8B0
:100C9C002230BB61FB6903F003039B000F2202FAB5
:100CAC0003F3DB43BA691340BB617A68574B9A4232
:100CBC0037D07A68564B9A4231D07A68554B9A4263
:100CCC002BD07A68544B9A4225D07A68534B9A426F
:100CDC001FD07A68524B9A4219D07A68514B9A427B
:100CEC0013D07A68504B9A420DD07A684F4B9A4287
:100CFC0007D07A684E4B9A4201D1092312E00A239D
:100D0C0010E008230EE007230CE006230AE005237D
:100D1C0008E0042306E0032304E0022302E001239D
:100D2C0000E00023FA6902F0030292009340BA69D2
:100D3C001343BB61344BFA6992080232B96943F828
:100D4C0022103C4B1B68BB613B69DB43BA69134007
:100D5C00BB613B685B6803F48033002B03D0BA693A
:100D6C003B691343BB61334BBA691A60314B5B6807
:100D7C00BB613B69DB43BA691340BB613B685B6891
:100D8C0003F40033002B03D0BA693B691343BB61F6
:100D9C00284BBA695A60274B9B68BB613B69DB43A4
:100DAC00BA691340BB613B685B6803F48013002B8A
:100DBC0003D0BA693B691343BB611E4BBA699A6095
:100DCC001C4BDB68BB613B69DB43BA691340BB61FD
:100DDC003B685B6803F40013002B03D0BA693B69D2
:100DEC001343BB61134BBA69DA60FB690133FB61D6
:100DFC00FB690F2B7FF686AE2437BD465DF8047B6E
:100E0C00704700BF0038024000380140000002402B
:100E1C000004024000080240000C02400010024096
:100E2C000014024000180240001C02400020024046
:100E3C0000240240003C014080B483B000AF7860D5
:100E4C0013460A467A807B707B78002B03D07A8815
:100E5C007B689A6103E07B881A047B689A610C3783
:100E6C00BD465DF8047B704780B584B000AF7860F8
:100E7C000023FB600023BB607B68002B01D10123A6
:100E8C00C1E07B6893F83530DBB2002B06D17B6870
:100E9C00002283F83420786801F0CEFC7B680222B3
:100EAC0083F835207B681B687A681268126822F018
:100EBC0001021A6001F08CF9B860BA68544BA3FBBC
:100ECC0002039B0CFB607B681B68FA685A607B68AA
:100EDC001A687B6859684F4B994202D8FB680133FA
:100EEC0009E0FB684FF4967101FB03F14A4BA3FB3D
:100EFC0001039B09013313627B6819687B685A688C
:100F0C00444B9A4212D87B685B685B00BA68B2FBB0
:100F1C00F3F3C3F30B03032B06D97B685B685B000D
:100F2C00BA68B2FBF3F345E0042343E07B689B68AB
:100F3C00002B0FD17B685A6813465B001344BA68C8
:100F4C00B2FBF3F3C3F30B03002B14BF00230123F9
:100F5C00DBB210E07B685A6813469B0013449A007E
:100F6C001344BA68B2FBF3F3C3F30B03002B14BFA7
:100F7C0000230123DBB2002B01D001231AE07B6894
:100F8C009B68002B0AD17B685A6813465B0013449C
:100F9C00BA68B2FBF3F343F400430BE07B685A6886
:100FAC0013469B0013449A001344BA68B2FBF3F344
:100FBC0043F44043CB617B681B687A68D1697A68DB
:100FCC00126A0A431A607B681B687A6811697A682E
:100FDC00D2680A439A607B681B687A6851697A68A0
:100FEC0092690A43DA607B681B687A681268126837
:100FFC0042F001021A607B6800229A637B6801222E
:10100C0083F83520002318461037BD4680BD00BF3D
:10101C0083DE1B43A0860100D34D621080B586B0E1
:10102C0000AFF8607A600A467A813B81FB6893F8DE
:10103C003530DBB2012B78D17B68002B02D03B8999
:10104C00002B01D1012371E0F8683A49012242F2E8
:10105C00107300F0EBFA0346002B01D0022365E07D
:10106C00FB6893F83430012B01D102235EE0FB685E
:10107C00012283F83420FB681B68FA681268126836
:10108C0022F400621A60FB68122283F83520FB6898
:10109C0000229A63FB687A685A62FB683A891A855F
:1010AC00FB683A895A85FB68DB6A234ADA63FB687A
:1010BC00DB6A224A9A64FB68D86A7968FB681B6809
:1010CC0010331A463B89FFF7FDFA7B89F8681946FD
:1010DC00232200F00BF90346002B0FD0FB689B6B0F
:1010EC00042B05D1FB68002283F8342001231DE07A
:1010FC00FB68002283F83420032317E0FB681B688D
:10110C00FA681268526842F400625A60FB681B6805
:10111C005B697B61FB681B689B697B617B69FB6816
:10112C00002283F83420002300E0022318461837ED
:10113C00BD4680BD0200100001150008F515000821
:10114C0080B586B000AFF8607A600A467A813B8140
:10115C00FB6893F83530DBB2012B40F08D807B6857
:10116C00002B02D03B89002B01D1012385E0F868CC
:10117C004449012242F2107300F058FA0346002B46
:10118C0001D0022379E0FB6893F83430012B01D1B4
:10119C00022372E0FB68012283F83420FB681B6891
:1011AC00FA681268126822F400621A60FB68222244
:1011BC0083F83520FB6800229A63FB687A685A62D0
:1011CC00FB683A891A85FB683A895A85FB681B6B60
:1011DC002D4ADA63FB681B6B2C4A9A64FB68186B0C
:1011EC00FB681B68103319467A683B89FFF76AFA6B
:1011FC007B89F8681946232200F0DAF80346002BA5
:10120C000FD0FB689B6B042B05D1FB68002283F885
:10121C003420012331E0FB68002283F834200323BF
:10122C002BE03B89012B08D1FB681B68FA6812681C
:10123C00126822F480621A6007E0FB681B68FA6887
:10124C001268526842F480525A60FB681B68FA6854
:10125C001268526842F400625A60FB681B685B6952
:10126C007B61FB681B689B697B617B69FB68002267
:10127C0083F83420002300E0022318461837BD46BB
:10128C0080BD00BF020010007D150008F515000898
:10129C0080B483B000AF78600C37BD465DF8047B3A
:1012AC00704700BF80B483B000AF78600C37BD4688
:1012BC005DF8047B704700BF80B483B000AF7860EA
:1012CC007B6893F83530DBB218460C37BD465DF8B9
:1012DC00047B704780B483B000AF78607B689B6BF5
:1012EC0018460C37BD465DF8047B704780B584B05A
:1012FC0000AFF8600B467A607B81FB681B68FA686C
:10130C001268126842F480721A60F8684FF001118A
:10131C0000227B6800F08AF90346002B01D00323DE
:10132C003DE0FB681B69B3F5804F07D1FB681B6878
:10133C007A89D2B202F0FE021A611FE0FB681B68C8
:10134C007A8902F44072D211D2B262F00F02D2B298
:10135C001A61F86814497A6800F0F2F90346002B18
:10136C0007D0FB689B6B042B01D1012317E00323EF
:10137C0015E0FB681B687A89D2B21A61F8680B49D0
:10138C007A6800F0DDF90346002B07D0FB689B6BF5
:10139C00042B01D1012302E0032300E000231846B3
:1013AC001037BD4680BD00BF0800010002000100DF
:1013BC0080B586B000AFF8600B467A607B81FB6825
:1013CC001B68FA681268126842F480621A60FB6843
:1013DC001B68FA681268126842F480721A60F86826
:1013EC004FF0011100227B6800F020F90346002B1E
:1013FC0001D0032376E0FB681B69B3F5804F08D15D
:10140C00FB681B687A89D2B242F00102D2B21A612F
:10141C0057E0FB681B687A8902F44072D211D2B291
:10142C0062F00F02D2B21A61F86830497A6800F0A3
:10143C0087F90346002B07D0FB689B6B042B01D16B
:10144C0001234FE003234DE0FB681B687A89D2B27D
:10145C001A61F86826497A6800F072F90346002B85
:10146C0007D0FB689B6B042B01D101233AE00323CB
:10147C0038E0FB681B685B697B61FB681B689B69D8
:10148C007B617B69FB681B68FA681268126842F41E
:10149C0080721A60F8684FF0011100227B6800F02E
:1014AC00C5F80346002B01D003231BE0FB681B6827
:1014BC007A8902F44072D211D2B262F00E02D2B228
:1014CC001A61F8680A497A6800F03AF90346002B69
:1014DC0007D0FB689B6B042B01D1012302E0032393
:1014EC0000E0002318461837BD4680BD08000100F7
:1014FC000200010080B584B000AF78607B689B6B04
:10150C00FB60F86819490022232300F08FF803468A
:10151C00002B05D0FB689B6B43F02002FB689A63A1
:10152C00FB681B68FA681268126842F400721A6051
:10153C00FB681B68FA681268526822F400625A60F1
:10154C00FB6800225A85FB68012283F83520FB6872
:10155C009B6B002B03D0F86801F064F902E0F8688B
:10156C00FFF796FE1037BD4680BD00BF040001009A
:10157C0080B584B000AF78607B689B6BFB60FB68C8
:10158C001B68FA681268126822F480621A60FB68A1
:10159C001B68FA681268126842F400721A60FB68E1
:1015AC001B68FA681268526822F480525A60FB6811
:1015BC001B68FA681268526822F400625A60FB6871
:1015CC0000225A85FB68012283F83520FB689B6B4F
:1015DC00002B03D0F86801F025F902E0F868FFF75A
:1015EC0061FE1037BD4680BD80B584B000AF786019
:1015FC007B689B6BFB60FB681B68FA68126812685F
:10160C0022F480621A60FB6800225A85FB68012272
:10161C0083F83520FB689B6B43F01002FB689A63E0
:10162C00F86801F0FFF81037BD4680BD80B586B074
:10163C0000AFF860B9603B601346FB7100237B611F
:10164C00FEF7C0FE7861FB79002B3AD118E03B68BD
:10165C00B3F1FF3F14D03B68002B07D0FEF7B2FE6E
:10166C0002467B69D21A3B689A4209D9FB6801226F
:10167C0083F83520FB68002283F8342003235BE0D9
:10168C00BB681B0CDBB2012B0CD1FB681B685B69C4
:10169C00DA43BB6813409BB2002B0CBF0023012321
:1016AC00DBB20BE0FB681B689B69DA43BB68134039
:1016BC009BB2002B0CBF00230123DBB2002BC6D145
:1016CC0039E018E03B68B3F1FF3F14D03B68002BC6
:1016DC0007D0FEF777FE02467B69D21A3B689A4226
:1016EC0009D9FB68012283F83520FB68002283F8B6
:1016FC003420032320E0BB681B0CDBB2012B0CD184
:10170C00FB681B685B69DA43BB6813409BB2002B18
:10171C0014BF00230123DBB20BE0FB681B689B6941
:10172C00DA43BB6813409BB2002B14BF0023012388
:10173C00DBB2002BC6D1002318461837BD4680BD3E
:10174C0080B586B000AFF860B9607A6000237B6129
:10175C00FEF738FE786139E0FB681B685B6903F4BF
:10176C008063002B19D0FB681B68FA68126812683A
:10177C0042F400721A60FB681B686FF480625A6155
:10178C00FB6804229A63FB68012283F83520FB680E
:10179C00002283F83420012339E07B68B3F1FF3F4A
:1017AC0014D07B68002B07D0FEF70CFE02467B6939
:1017BC00D21A7B689A4209D9FB68012283F835203A
:1017CC00FB68002283F83420032320E0BB681B0C49
:1017DC00DBB2012B0CD1FB681B685B69DA43BB687D
:1017EC0013409BB2002B0CBF00230123DBB20BE098
:1017FC00FB681B689B69DA43BB6813409BB2002BE8
:10180C000CBF00230123DBB2002BA5D1002318460B
:10181C001837BD4680BD00BF80B586B000AF002331
:10182C007B612D4B2C4A126C42F080521A642A4B6D
:10183C001B6C03F080533B603B684FF480333B617F
:10184C003B6993FAA3F3FB60FB68B3FA83F39B0049
:10185C0003F1844303F5602301221A60FEF7B2FD05
:10186C00786109E0FEF7AEFD02467B69D31AB3F549
:10187C007A7F01D903232BE0184B5B6803F4803388
:10188C00002BEFD04FF40033BB60BB6893FAA3F38B
:10189C007B607B68B3FA83F39B0003F1844303F50D
:1018AC00602301221A60FEF78DFD786109E0FEF7D6
:1018BC0089FD02467B69D31AB3F57A7F01D90323DC
:1018CC0006E0064B5B6803F40033002BEFD00023DB
:1018DC0018461837BD4680BD0038024000700040E5
:1018EC0080B58EB000AF786000237B637B681B688B
:1018FC0003F00103002B6AD0A24B9B6803F00C038E
:10190C00042B0BD09F4B9B6803F00C03082B12D1BC
:10191C009C4B5B6803F48003002B0CD0994B1B6829
:10192C0003F40033002B05D07B685B68002B01D1DE
:10193C0001230FE24BE0944B00221A70FEF742FD9C
:10194C0078630AE0FEF73EFD02467B6BD21A41F249
:10195C0088339A4201D90323FCE18A4B1B6803F4B8
:10196C000033002BEED1884B7A685268D2B21A70D1
:10197C007B685B68002B15D0FEF724FD78630AE0CA
:10198C00FEF720FD02467B6BD21A41F288339A4255
:10199C0001D90323DEE17B4B1B6803F40033002BDE
:1019AC00EED014E0FEF70EFD78630AE0FEF70AFDB8
:1019BC0002467B6BD21A41F288339A4201D9032337
:1019CC00C8E1704B1B6803F40033002BEED17B682D
:1019DC001B6803F00203002B77D06A4B9B6803F063
:1019EC000C03002B0BD0674B9B6803F00C03082BEC
:1019FC0026D1644B5B6803F48003002B20D1614B30
:101A0C001B6803F00203002B05D07B68DB68012BFD
:101A1C0001D001239EE15B4B5A4A126822F0F80177
:101A2C007A681069F8223A633A6B92FAA2F2FA6277
:101A3C00FA6AB2FA82F200FA02F20A431A6044E03D
:101A4C007B68DB68002B2AD0504B01221A60FEF712
:101A5C00B9FC786308E0FEF7B5FC02467B6BD31A41
:101A6C00642B01D9032375E1464B1B6803F0020379
:101A7C00002BF0D0434B434A126822F0F8017A68ED
:101A8C001069F822BA62BA6A92FAA2F27A627A6A97
:101A9C00B2FA82F200FA02F20A431A6015E03B4BEA
:101AAC0000221A60FEF78EFC786308E0FEF78AFCD1
:101ABC0002467B6BD31A642B01D903234AE1314BC9
:101ACC001B6803F00203002BF0D17B681B6803F04A
:101ADC000803002B30D07B685B69002B16D02C4B95
:101AEC0001221A60FEF76EFC786308E0FEF76AFCD0
:101AFC0002467B6BD31A642B01D903232AE1214BB9
:101B0C005B6F03F00203002BF0D015E0204B00229A
:101B1C001A60FEF757FC786308E0FEF753FC0246A8
:101B2C007B6BD31A642B01D9032313E1154B5B6F29
:101B3C0003F00203002BF0D17B681B6803F0040355
:101B4C00002B7BD00F4B0F4A126C42F080521A6460
:101B5C000C4B1B6C03F08053BB60BB680D4B0D4AE8
:101B6C00126842F480721A60FEF72CFC786313E062
:101B7C00FEF728FC02467B6BD31A642B0CD903238B
:101B8C00E8E000BF00380240023802400000474243
:101B9C00800E474200700040704B1B6803F480734A
:101BAC00002BE5D06E4B00221A70FEF70BFC78630D
:101BBC000AE0FEF707FC02467B6BD21A41F288332F
:101BCC009A4201D90323C5E0664B1B6F03F0020355
:101BDC00002BEED1624B7A689268D2B21A707B6895
:101BEC009B68002B15D0FEF7EDFB78630AE0FEF73F
:101BFC00E9FB02467B6BD21A41F288339A4201D937
:101C0C000323A7E0574B1B6F03F00203002BEED00E
:101C1C0014E0FEF7D7FB78630AE0FEF7D3FB02462D
:101C2C007B6BD21A41F288339A4201D9032391E09B
:101C3C004C4B1B6F03F00203002BEED17B689B69AE
:101C4C00002B00F08680474B9B6803F00C03082B9D
:101C5C007DD07B689B69022B62D1434B00221A60BA
:101C6C00FEF7B0FB786308E0FEF7ACFB02467B6B3B
:101C7C00D31A642B01D903236CE03A4B1B6803F095
:101C8C000073002BF0D1374B7A68D1697A68126AED
:101C9C0011437A68506A47F6C0723A623A6A92FA0D
:101CAC00A2F2FA61FA69B2FA82F200FA02F2114374
:101CBC007A68926A5208501E4FF44032BA61BA697F
:101CCC0092FAA2F27A617A69B2FA82F200FA02F21C
:101CDC0011437A68D06A4FF070623A613A6992FAAD
:101CEC00A2F2FA60FA68B2FA82F200FA02F20A433D
:101CFC005A601D4B01221A60FEF764FB786308E002
:101D0C00FEF760FB02467B6BD31A642B01D90323CD
:101D1C0020E0144B1B6803F00073002BF0D018E08C
:101D2C00114B00221A60FEF74DFB786308E0FEF7BA
:101D3C0049FB02467B6BD31A642B01D9032309E0C0
:101D4C00084B1B6803F00073002BF0D101E001235A
:101D5C0000E0002318463837BD4680BD00700040B7
:101D6C0070380240003802406000474280B584B0B1
:101D7C0000AF786039600023FB60A24B1B6803F056
:101D8C000F023B689A4280F0A8809E4B3A68D2B210
:101D9C001A709C4B1B6803F00F023B689A4201D0EF
:101DAC00012369E17B681B6803F00203002B08D058
:101DBC00954B954A926822F0F0017A6892680A4332
:101DCC009A607B681B6803F00103002B00F03181E3
:101DDC007B685B68012B07D18B4B1B6803F40033CA
:101DEC00002B1AD1012347E17B685B68022B03D0DF
:101DFC007B685B68032B08D1834B1B6803F0007373
:101E0C00002B01D1012337E107E07F4B1B6803F066
:101E1C000203002B01D101232EE17B4B7A4A9268FD
:101E2C0022F003017A6852680A439A60FEF7CAFAF4
:101E3C00F8607B685B68012B12D10AE0FEF7C2FAEE
:101E4C000246FB68D21A41F288339A4201D9032325
:101E5C0012E16D4B9B6803F00C03042BEED1E8E010
:101E6C007B685B68022B12D10AE0FEF7ABFA0246E4
:101E7C00FB68D21A41F288339A4201D90323FBE062
:101E8C00614B9B6803F00C03082BEED1D1E07B680F
:101E9C005B68032B0ED101E00323EDE05A4B9B68EA
:101EAC00FEF790FA0246FB68D21A41F288339A4246
:101EBC00F4D9F1E70AE0FEF785FA0246FB68D21A7C
:101ECC0041F288339A4201D90323D5E04E4B9B68EB
:101EDC0003F00C03002BEED1ABE07B681B6803F026
:101EEC000203002B08D0484B474A926822F0F001BD
:101EFC007A6892680A439A607B681B6803F0010356
:101F0C00002B00F089807B685B68012B07D13E4B6E
:101F1C001B6803F40033002B1AD10123ACE07B685F
:101F2C005B68022B03D07B685B68032B08D1364BB4
:101F3C001B6803F00073002B01D101239CE007E028
:101F4C00314B1B6803F00203002B01D1012393E0FA
:101F5C002D4B2D4A926822F003017A6852680A438D
:101F6C009A60FEF72FFAF8607B685B68012B12D140
:101F7C000AE0FEF727FA0246FB68D21A41F28833D0
:101F8C009A4201D9032377E01F4B9B6803F00C03A3
:101F9C00042BEED140E07B685B68022B12D10AE087
:101FAC00FEF710FA0246FB68D21A41F288339A42C5
:101FBC0001D9032360E0144B9B6803F00C03082B3E
:101FCC00EED129E07B685B68032B0ED101E0032383
:101FDC0052E00D4B9B68FEF7F5F90246FB68D21AEE
:101FEC0041F288339A42F4D9F1E70FE0FEF7EAF9AF
:101FFC000246FB68D21A41F288339A4206D903236F
:10200C003AE000BF003C0240003802401C4B9B6889
:10201C0003F00C03002BE9D11A4B3A68D2B21A70B8
:10202C00184B1B6803F00F023B689A4201D0012346
:10203C0022E07B681B6803F00403002B08D0104BD4
:10204C000F4A926822F4E0517A68D2680A439A6087
:10205C007B681B6803F00803002B09D0084B084A67
:10206C00926822F460417A681269D2000A439A603D
:10207C000F20FEF77DF9002318461037BD4680BDB2
:10208C0000380240003C024080B48BB000AF00230B
:10209C00FB6100237B620023BB6100233B62364B58
:1020AC009B6803F00C03042B06D0082B07D0002BE5
:1020BC0058D1324B3B6258E0314B3B6255E02E4BD2
:1020CC005B6803F03F03FB612B4B5B6803F48003FD
:1020DC00002B17D02A4AFB69B2FBF3F2264B596846
:1020EC0047F6C0730B4047F6C0717961796991FA74
:1020FC00A1F139613969B1FA81F1CB4003FB02F3EB
:10210C007B6216E01D4AFB69B2FBF3F21A4B59686D
:10211C0047F6C0730B4047F6C071F960F96891FA45
:10212C00A1F1B960B968B1FA81F1CB4003FB02F3BC
:10213C007B62114B5B6803F440324FF440337B609D
:10214C007B6893FAA3F33B603B68B3FA83F322FA00
:10215C0003F301335B00BB617A6ABB69B2FBF3F337
:10216C003B6202E0054B3B6200BF3B6A18462C37D2
:10217C00BD465DF8047B7047003802400024F40033
:10218C0000127A0080B582B000AFFFF77DFF0246E7
:10219C000C4B9B6803F0F001F0237B607B6893FA97
:1021AC00A3F33B603B68B3FA83F321FA03F30649CC
:1021BC00CB5CDA40054B1A60044B1B681846083799
:1021CC00BD4680BD00380240B82B00080800002036
:1021DC0080B582B000AFFFF7D5FF02460B4B9B6872
:1021EC0003F4E0514FF4E0537B607B6893FAA3F364
:1021FC003B603B68B3FA83F321FA03F30449CB5CED
:10220C0022FA03F318460837BD4680BD0038024059
:10221C00B82B000880B588B000AF78600023FB6154
:10222C000023BB617B681B681B6803F00103002B58
:10223C000CBF00230123DBB2FB617B681B68DB68EE
:10224C0003F48073BB61FB69002B11D0BB69002BBD
:10225C000ED07B681B681B687B617B681B685B68A6
:10226C007B617B697B68DB6B43F001027B68DA6323
:10227C007B681B681B6803F00203002B0CBF002358
:10228C000123DBB2FB617B681B685B6903F0010314
:10229C00BB61FB69002B11D0BB69002B0ED07B6896
:1022AC001B681B683B617B681B685B683B613B6917
:1022BC007B68DB6B43F004027B68DA637B681B682A
:1022CC001B6803F00403002B0CBF00230123DBB2BB
:1022DC00FB617B681B685B6903F00103BB61FB69F5
:1022EC00002B11D0BB69002B0ED07B681B681B68C0
:1022FC00FB607B681B685B68FB60FB687B68DB6B67
:10230C0043F002027B68DA637B681B681B6803F08E
:10231C000803002B0CBF00230123DBB2FB617B689D
:10232C001B685B6903F00103BB61FB69002B11D0D7
:10233C00BB69002B0ED07B681B681B68BB607B687D
:10234C001B685B68BB60BB687B68DB6B43F0080297
:10235C007B68DA637B681B681B6803F02003002B27
:10236C000CBF00230123DBB2FB617B681B68DB68BD
:10237C0003F02003BB61FB69002B05D0BB69002B6C
:10238C0002D0786800F0F0F87B681B681B6803F0DB
:10239C008003002B0CBF00230123DBB2FB617B68A5
:1023AC001B68DB6803F08003BB61FB69002B05D065
:1023BC00BB69002B02D0786800F046F87B681B687C
:1023CC001B6803F04003002B0CBF00230123DBB27E
:1023DC00FB617B681B68DB6803F04003BB61FB6936
:1023EC00002B05D0BB69002B02D0786800F088F870
:1023FC007B68DB6B002B06D07B68012283F83920CD
:10240C00786800F017F82037BD4680BD80B483B0E3
:10241C0000AF78600C37BD465DF8047B704700BF99
:10242C0080B483B000AF78600C37BD465DF8047B98
:10243C00704700BF80B483B000AF78600C37BD46E6
:10244C005DF8047B704700BF80B485B000AF786046
:10245C000023FB607B6893F83930DBB2FB60FB68D0
:10246C00122B02D0FB68322B43D17B689B68B3F5EF
:10247C00805F19D17B681B6ABB607B681B68BA687C
:10248C001288C2F308025A607B681B69002B05D1C5
:10249C007B681B6A9A1C7B681A620EE07B681B6A5D
:1024AC005A1C7B681A6208E07B681A687B681B6A96
:1024BC00581C796808621B7853607B68DB8C013B85
:1024CC009AB27B68DA847B68DB8C002B0FD17B683B
:1024DC001B687A681268D26822F08002DA607B6826
:1024EC001B687A681268D26842F04002DA600023F6
:1024FC0000E0022318461437BD465DF8047B704794
:10250C0080B582B000AF78607B681B687A6812680F
:10251C00D26822F04002DA607B6893F83930DBB283
:10252C00322B04D17B68222283F8392013E07B689C
:10253C001B687A681268D26822F48072DA607B6851
:10254C001B687A681268526922F001025A617B6832
:10255C00012283F839207868FFF758FF00231846CA
:10256C000837BD4680BD00BF80B584B000AF786031
:10257C000023FB607B6893F83930DBB2FB60FB68AF
:10258C00222B02D0FB68322B7CD17B689B68B3F585
:10259C00805F23D17B689B6ABB607B681B69002BC7
:1025AC000ED17B681B685B689BB2C3F308039AB2BD
:1025BC00BB681A807B689B6A9A1C7B689A6229E0CC
:1025CC007B681B685B689BB2DBB29AB2BB681A80F3
:1025DC007B689B6A5A1C7B689A621BE07B681B6950
:1025EC00002B0AD17B689B6A591C7A6891627A68C5
:1025FC0012685268D2B21A700CE07B689B6A591C44
:10260C007A6891627A6812685268D2B202F07F02DC
:10261C00D2B21A707B68DB8D013B9AB27B68DA858B
:10262C007B68DB8D002B2BD17B681B687A6812686A
:10263C00D26822F02002DA607B6893F83930DBB282
:10264C00322B04D17B68122283F8392013E07B688B
:10265C001B687A681268D26822F48072DA607B6830
:10266C001B687A681268526922F001025A617B6811
:10267C00012283F839207868FFF7D2FE002302E0AC
:10268C00002300E0022318461037BD4680BD00BF72
:10269C0080B500AFFDF744FE0020FDF7D7FD01200B
:1026AC00FDF7D4FD00F070F82F4B304A1A602E4B1A
:1026BC004FF440421A612C4B2D4A5A602A4B00228F
:1026CC005A61294B4FF480429A60274B0022DA6101
:1026DC00254B00221A62244B40F20F32DA60224B57
:1026EC00FE229A612048FEF7BFFB0346002B01D067
:1026FC0000F044F81F4B41221A7007E01A48FEF70D
:10270C00E9FD0346042B01D000F038F8164840F2DE
:10271C000F31184A0123FEF781FC0346002BEDD143
:10272C0000BF1148FEF7C8FD0346012BF9D107E0A5
:10273C000D48FEF7CFFD0346042B01D000F01EF828
:10274C00094840F20F310C4A0123FEF7F9FC03460D
:10275C00002BEDD100BF0448FEF7AEFD0346012B64
:10276C00F9D100BFD2E700BFDC00002000540040CC
:10277C00801A0600580200205801002080B500AFD6
:10278C000120FDF7B3FDFEE780B594B000AF234BFD
:10279C00224A126C42F080521A64204B1B6C03F0DC
:1027AC008053BB60BB681E4B1D4A126842F440420A
:1027BC001A601B4B1B6803F440437B607B6801234E
:1027CC00FB6001233B6102237B624FF48003BB62FD
:1027DC000823FB624FF4B4733B6302237B63072330
:1027EC00BB6307F10C031846FFF77AF8FFF714F8F0
:1027FC000F23FB6302233B6400237B644FF4A05341
:10280C00BB644FF48053FB6407F13C03184605216D
:10281C00FFF7ACFA5037BD4680BD00BF0038024010
:10282C000070004080B582B000AF78600120FDF7E9
:10283C005DFD0837BD4680BD80B58CB000AF7860BB
:10284C00634B634A126B42F002021A63604B1B6BC0
:10285C0003F00203BB61BB695D4B5D4A126B42F036
:10286C0002021A635A4B1B6B03F002037B617B69F8
:10287C00574B574A126C42F400121A64544B1B6C9F
:10288C0003F400133B613B69514B514A126B42F408
:10289C0000121A634E4B1B6B03F40013FB60FB68B6
:1028AC004023FB6112233B6201237B620223BB6248
:1028BC000423FB6207F11C0346481946FEF714F982
:1028CC004FF40073FB610423FB6207F11C034148C6
:1028DC001946FEF709F9404B404A1A603E4B4FF03F
:1028EC0000725A603C4B40229A603B4B0022DA60EB
:1028FC00394B4FF480621A61374B00225A61364BC8
:10290C0000229A61344B0022DA61334B00221A62A6
:10291C00314B00225A62304B03229A622E4B4FF4F9
:10292C000002DA622C4B4FF400121A632A48FDF7AE
:10293C005DFE7B68284ADA62274B7A689A63284BDB
:10294C00284A1A60264B4FF000725A60244B002222
:10295C009A60234B0022DA60214B4FF480621A619B
:10296C001F4B00225A611E4B00229A611C4B002205
:10297C00DA611B4B4FF400321A62194B00225A6277
:10298C00174B03229A62164B4FF40002DA62144B77
:10299C004FF400121A631248FDF728FE7B68104AA8
:1029AC001A630F4B7A689A63112000210122FDF7FC
:1029BC00E7FD1120FDF700FE102000210022FDF79D
:1029CC00DFFD1020FDF7F8FD3037BD4680BD00BFA0
:1029DC0000380240000402402C000020A06002409D
:1029EC00840000208860024080B400AFBD465DF8D2
:1029FC00047B704780B400AFFEE700BF80B400AF2B
:102A0C00FEE700BF80B400AFFEE700BF80B400AFAC
:102A1C00FEE700BF80B400AFBD465DF8047B704795
:102A2C0080B400AFBD465DF8047B704780B400AF46
:102A3C00BD465DF8047B704780B500AFFDF7B4FC74
:102A4C0080BD00BF80B500AF024B5B6B1846FDF735
:102A5C007BFE80BD1801002080B500AF024B1B6BC4
:102A6C001846FDF771FE80BD1801002080B500AF3F
:102A7C000148FFF7CFFB80BD1801002080B400AFE8
:102A8C00164B164AD2F8882042F47002C3F88820FC
:102A9C00134B134A126842F001021A60104B0022C9
:102AAC009A600F4A0E4B1B6823F0847323F4803317
:102ABC0013600B4B0B4A5A60094B094A126822F4FB
:102ACC0080221A60064B0022DA60044B4FF0006241
:102ADC009A60BD465DF8047B704700BF00ED00E0D6
:102AEC000038024010300024DFF834D0002103E01D
:102AFC000C4B5B58435004310B480C4B42189A4218
:102B0C00F6D30B4A02E0002342F8043B094B9A42ED
:102B1C00F9D3FFF7B3FF00F011F8FFF7B9FD7047D9
:102B2C00FFFF0220D02B0008000000200C0000202A
:102B3C000C00002058030020FEE7000070B50E4B7F
:102B4C000E4DED1AAD1000241E46AC4204D056F8C2
:102B5C00242090470134F8E700F016F8084D094B93
:102B6C00ED1AAD1000241E46AC4204D056F82420B9
:102B7C0090470134F8E770BDC82B0008C82B00083B
:102B8C00CC2B0008C82B0008F8B500BFF8BC08BC5B
:102B9C009E467047F8B500BFF8BC08BC9E4670470F
:102BAC000020004000061016000610160000000061
:0C2BBC00010203040102030406070809DB
:042BC80025020008DA
:042BCC00FD010008FF
:0C2BD00000180240001802400024F4002D
:0400000508002AF5D0
:00000001FF
