:020000040800F2
:10000000FFFF022035290008352800084128000894
:10001000492800085128000859280008000000005D
:10002000000000000000000000000000612800083F
:100030006D280008000000007928000885280008C5
:1000400085290008852900088529000885290008D8
:1000500085290008852900088529000885290008C8
:1000600085290008852900088529000885290008B8
:1000700085290008852900088529000885290008A8
:100080008529000885290008852900088529000898
:100090008529000885290008852900088529000888
:1000A0008529000885290008852900088529000878
:1000B0008529000885290008852900088529000868
:1000C0008529000885290008852900088529000858
:1000D00085290008B9280008852900088529000815
:1000E0008529000885290008852900088529000838
:1000F0008529000885290008852900088529000828
:100100008529000885290008852900088529000817
:100110008529000885290008852900088529000807
:1001200085290008852900088529000885290008F7
:1001300085290008852900088529000885290008E7
:1001400085290008852900088529000885290008D7
:100150009128000885290008A5280008852900089D
:1001600085290008852900088529000885290008B7
:10017000852900088529000885290008000000005D
:100180008529000885290008852900088529000897
:100190008529000885290008852900088529000887
:0C01A00085290008852900088529000831
:1001AC0008B50548054B1B1A062B00D808BD044B97
:1001BC00002BFBD09847F9E7A8000020AB000020EB
:1001CC000000000008B50748074B1B1A9B1003EBF7
:1001DC00D373591000D108BD044A002AFBD09047B4
:1001EC00F9E700BFA8000020A800002000000000D4
:1001FC0010B5064C237843B9FFF7D2FF044B13B16B
:10020C000448AFF300800123237010BDA800002028
:10021C0000000000D429000808B5074B1BB10748A3
:10022C000749AFF300800748036813B1064B03B1CD
:10023C009847BDE80840C5E700000000D429000835
:10024C00AC000020A80000200000000080B58AB09F
:10025C0000AF0346FB71FB79002B0CD1204B204ADD
:10026C00126B42F040021A631D4B1B6B03F04003F0
:10027C003B613B690EE0FB79012B0BD1184B184A03
:10028C00126B42F040021A63154B1B6B03F04003D8
:10029C00FB60FB68FA79134B33F812307B61012356
:1002AC00BB610123FB6102233B62FA790E4B53F8CD
:1002BC00222007F114031046194600F05DFCFA7970
:1002CC00094B53F82220F979064B33F811301046BC
:1002DC001946002200F0F8FD2837BD4680BD00BF4E
:1002EC0000380240EC2900080000002080B582B0E4
:1002FC0000AF0346FB71FA79074B53F82220F979CA
:10030C00064B33F8113010461946012200F0DCFD83
:10031C000837BD4680BD00BF00000020EC29000856
:10032C0080B582B000AF0346FB71FA79074B53F8E6
:10033C002220F979064B33F8113010461946002269
:10034C0000F0C2FD0837BD4680BD00BF0000002094
:10035C00EC29000880B582B000AF0346FB71FA7936
:10036C00064B53F82220F979054B33F8113010461F
:10037C00194600F0C1FD0837BD4680BD00000020C5
:10038C00EC29000880B500AF0E4B0E4A126842F4FF
:10039C0000721A600B4B0B4A126842F480621A60AE
:1003AC00084B084A126842F480721A60032000F06D
:1003BC0025F90F2000F00EF800F006F8002318467F
:1003CC0080BD00BF003C024080B400AFBD465DF86C
:1003DC00047B704780B582B000AF786001F054FAAE
:1003EC000246094BA3FB02139B09184600F03AF98D
:1003FC004FF0FF307968002200F00AF9002318460C
:10040C000837BD4680BD00BFD34D621080B400AF2D
:10041C00044B1B685A1C034B1A60BD465DF8047BE9
:10042C00704700BFC400002080B400AF034B1B68B2
:10043C001846BD465DF8047B704700BFC400002021
:10044C0080B584B000AF78600023FB60FFF7ECFF51
:10045C00F86000BFFFF7E8FF0246FB68D21A7B6822
:10046C009A42F7D31037BD4680BD00BF80B485B02B
:10047C0000AF78607B6803F00703FB600C4BDB6814
:10048C00BB60BA684FF6FF031340BB60FB681A02EF
:10049C00BB68134343F0BF6343F40033BB60044BAE
:1004AC00BA68DA601437BD465DF8047B704700BF4C
:1004BC0000ED00E080B400AF044BDB6803F4E063B4
:1004CC001B0A1846BD465DF8047B704700ED00E042
:1004DC0080B483B000AF0346FB71084B97F907203B
:1004EC005209F97901F01F01012000FA01F143F8DA
:1004FC0022100C37BD465DF8047B704700E100E02C
:10050C0080B483B000AF03463960FB7197F90730B4
:10051C00002B0BDA0D49FB7903F00F03043B3A680F
:10052C00D2B21201D2B20B441A7609E0084997F9FB
:10053C0007303A68D2B21201D2B20B4483F80023CE
:10054C000C37BD465DF8047B704700BF00ED00E042
:10055C0000E100E080B489B000AFF860B9607A6067
:10056C00FB6803F00703FB61FB69C3F10703042B72
:10057C0028BF0423BB61FB690433062B02D9FB693A
:10058C00033B00E000237B61BB69012202FA03F309
:10059C005A1EBB681A407B699A407B69012101FA9B
:1005AC0003F3591E7B680B40134318462437BD4692
:1005BC005DF8047B704700BF80B582B000AF7860F7
:1005CC007B68013BB3F1807F01D301230FE00A4B21
:1005DC007A68013A5A604FF0FF300F21FFF790FF15
:1005EC00054B00229A60044B07221A600023184620
:1005FC000837BD4680BD00BF10E000E080B582B07A
:10060C0000AF78607868FFF731FF0837BD4680BDD2
:10061C0080B586B000AF0346B9607A60FB730023E7
:10062C007B61FFF747FF78617869B9687A68FFF7F3
:10063C0091FF034697F90F2010461946FFF760FF0C
:10064C001837BD4680BD00BF80B582B000AF0346F1
:10065C00FB7197F907301846FFF73AFF0837BD468C
:10066C0080BD00BF80B582B000AF78607868FFF7BE
:10067C00A3FF034618460837BD4680BD80B584B03D
:10068C0000AF78600023FB607B68002B01D1012355
:10069C005AE07B68022283F835207B681B681B6854
:1006AC00FB60FA682A4B1340FB607B685A687B68D6
:1006BC009B681A437B68DB681A437B681B691A4387
:1006CC007B685B691A437B689B691A437B68DB69AF
:1006DC001A437B681B6A1343FA681343FB607B68FD
:1006EC005B6A042B07D17B68DA6A7B681B6B13434C
:1006FC00FA681343FB607B681B68FA681A607B68B6
:10070C001B685B69FB60FB6823F00703FB607B687D
:10071C005B6AFA681343FB607B685B6A042B04D149
:10072C007B689B6AFA681343FB607B681B68FA68FA
:10073C005A61786800F0EAF97B680022DA647B6819
:10074C00012283F83520002318461037BD4680BDA2
:10075C003F8010F080B584B000AFF860B9607A606B
:10076C003B60FB6893F83430012B01D102232EE05F
:10077C00FB68012283F83420FB68022283F83520C1
:10078C00FB681B68FA681268126822F001021A6092
:10079C00F868B9687A683B6800F08AF9FB681B68EE
:1007AC00FA681268126842F01E021A60FB681B6835
:1007BC00FA681268526942F080025A61FB681B6841
:1007CC00FA681268126842F001021A600023184697
:1007DC001037BD4680BD00BF80B584B000AF7860D7
:1007EC007B681B6DFB60FB681A687B685B6D08217E
:1007FC0001FA03F31340002B2AD07B681B681B689B
:10080C0003F00403002B23D07B681B687A68126802
:10081C00126822F004021A607B685B6D08229A4011
:10082C00FB689A607B68DB6C43F001027B68DA64DE
:10083C007B68042283F835207B68002283F83420FF
:10084C007B689B6C002B03D07B689B6C786898470B
:10085C00FB681A687B685B6D934901FA03F31340DC
:10086C00002B2AD07B681B685B6903F08003002B8C
:10087C0023D07B681B687A681268526922F0800268
:10088C005A617B685B6D884A9A40FB689A607B680A
:10089C00DB6C43F002027B68DA647B68042283F829
:1008AC0035207B68002283F834207B689B6C002BFE
:1008BC0003D07B689B6C78689847FB681A687B68E8
:1008CC005B6D7A4901FA03F31340002B2AD07B6845
:1008DC001B681B6803F00203002B23D07B681B688A
:1008EC007A681268126822F002021A607B685B6DEB
:1008FC006E4A9A40FB689A607B68DB6C43F004029A
:10090C007B68DA647B68042283F835207B680022DC
:10091C0083F834207B689B6C002B03D07B689B6C2A
:10092C0078689847FB681A687B685B6D102101FA40
:10093C0003F31340002B4CD07B681B681B6803F03F
:10094C000803002B45D07B681B681B6803F48023CD
:10095C00002B1DD07B685B6D10229A40FB689A605F
:10096C007B681B681B6803F40023002B04D17B6895
:10097C00312283F8352024E07B681B681B6803F464
:10098C000023002B1DD07B68412283F8352018E012
:10099C007B681B681B6803F48073002B07D17B6892
:1009AC001B687A681268126822F008021A607B6869
:1009BC005B6D10229A40FB689A607B68312283F849
:1009CC0035207B681B6C002B03D07B681B6C786814
:1009DC009847FB681A687B685B6D202101FA03F36A
:1009EC001340002B5CD07B681B681B6803F0100362
:1009FC00002B55D07B681B681B6803F48023002BED
:100A0C0025D07B685B6D20229A40FB689A607B68DE
:100A1C001B681B6803F40023002B08D17B685B6CFC
:100A2C00002B3DD07B685B6C7868984738E07B681E
:100A3C001B681B6803F40023002B31D07B68DB6B35
:100A4C00002B2DD07B68DB6B7868984728E07B689F
:100A5C001B681B6803F48073002B07D17B681B6831
:100A6C007A681268126822F010021A607B685B6D5B
:100A7C0020229A40FB689A607B68DA6C7B68DA64A7
:100A8C007B68112283F835207B68002283F83420A0
:100A9C007B68DB6B002B03D07B68DB6B786898473B
:100AAC001037BD4680BD00BF0100800004008000EF
:100ABC0080B485B000AFF860B9607A603B60FB68C9
:100ACC001B68FA681268126822F480221A60FB68AC
:100ADC001B683A685A60FB689B68402B08D1FB681E
:100AEC001B687A689A60FB681B68BA68DA6007E072
:100AFC00FB681B68BA689A60FB681B687A68DA60E6
:100B0C001437BD465DF8047B704700BF80B485B0D8
:100B1C0000AF78607B681B68DBB2A3F11002144B4A
:100B2C00A3FB02131B09FB60124AFB6813441B78DE
:100B3C001A467B685A65FB68032B09D97B681B68CE
:100B4C0023F47F7323F003031A1D7B681A6507E0F7
:100B5C007B681B6823F47F7323F003037A681365A7
:100B6C007B681B6D18461437BD465DF8047B7047D7
:100B7C00ABAAAAAAF029000880B489B000AF7860AB
:100B8C00396000237B6100233B610023BB610023A0
:100B9C00FB6175E1FB69012202FA03F37B613B689F
:100BAC001A687B6913403B613A697B699A4240F051
:100BBC0064813B685B68022B03D03B685B68122B3B
:100BCC0023D1FB69DA087B68083253F82230BB6109
:100BDC00FB6903F007039B000F2202FA03F3DB43CC
:100BEC00BA691340BB613B681A69FB6903F00703E0
:100BFC009B0002FA03F3BA691343BB61FB69DA0881
:100C0C007B680832B96943F822107B681B68BB61AA
:100C1C00FB695B00032202FA03F3DB43BA6913405E
:100C2C00BB613B685B6803F00302FB695B0002FA83
:100C3C0003F3BA691343BB617B68BA691A603B68FA
:100C4C005B68012B0BD03B685B68022B07D03B68C1
:100C5C005B68112B03D03B685B68122B30D17B682F
:100C6C009B68BB61FB695B00032202FA03F3DB4365
:100C7C00BA691340BB613B68DA68FB695B0002FA36
:100C8C0003F3BA691343BB617B68BA699A607B68EA
:100C9C005B68BB61FB69012202FA03F3DB43BA69AF
:100CAC001340BB613B685B6803F010031A09FB69D6
:100CBC0002FA03F3BA691343BB617B68BA695A60E1
:100CCC007B68DB68BB61FB695B00032202FA03F300
:100CDC00DB43BA691340BB613B689A68FB695B00F4
:100CEC0002FA03F3BA691343BB617B68BA69DA6031
:100CFC003B685B6803F08053002B00F0BE80654BB3
:100D0C00644A526C42F480425A64624B5B6C03F44A
:100D1C008043FB60FB68604BFA699208023253F81F
:100D2C002230BB61FB6903F003039B000F2202FA24
:100D3C0003F3DB43BA691340BB617A68574B9A42A1
:100D4C0037D07A68564B9A4231D07A68554B9A42D2
:100D5C002BD07A68544B9A4225D07A68534B9A42DE
:100D6C001FD07A68524B9A4219D07A68514B9A42EA
:100D7C0013D07A68504B9A420DD07A684F4B9A42F6
:100D8C0007D07A684E4B9A4201D1092312E00A230C
:100D9C0010E008230EE007230CE006230AE00523ED
:100DAC0008E0042306E0032304E0022302E001230D
:100DBC0000E00023FA6902F0030292009340BA6942
:100DCC001343BB61344BFA6992080232B96943F898
:100DDC0022103C4B1B68BB613B69DB43BA69134077
:100DEC00BB613B685B6803F48033002B03D0BA69AA
:100DFC003B691343BB61334BBA691A60314B5B6877
:100E0C00BB613B69DB43BA691340BB613B685B6800
:100E1C0003F40033002B03D0BA693B691343BB6165
:100E2C00284BBA695A60274B9B68BB613B69DB4313
:100E3C00BA691340BB613B685B6803F48013002BF9
:100E4C0003D0BA693B691343BB611E4BBA699A6004
:100E5C001C4BDB68BB613B69DB43BA691340BB616C
:100E6C003B685B6803F40013002B03D0BA693B6941
:100E7C001343BB61134BBA69DA60FB690133FB6145
:100E8C00FB690F2B7FF686AE2437BD465DF8047BDD
:100E9C00704700BF0038024000380140000002409B
:100EAC000004024000080240000C02400010024006
:100EBC000014024000180240001C024000200240B6
:100ECC0000240240003C014080B483B000AF786045
:100EDC0013460A467A807B707B78002B03D07A8885
:100EEC007B689A6103E07B881A047B689A610C37F3
:100EFC00BD465DF8047B704780B483B000AF78606A
:100F0C000B467B807B685A697B885A407B685A61A8
:100F1C000C37BD465DF8047B704700BF80B586B0CA
:100F2C0000AF00237B612D4B2C4A126C42F0805297
:100F3C001A642A4B1B6C03F080533B603B684FF4E4
:100F4C0080333B613B6993FAA3F3FB60FB68B3FA14
:100F5C0083F39B0003F1844303F5602301221A60A1
:100F6C00FFF762FA786109E0FFF75EFA02467B69E7
:100F7C00D31AB3F57A7F01D903232BE0184B5B68A6
:100F8C0003F48033002BEFD04FF40033BB60BB680D
:100F9C0093FAA3F37B607B68B3FA83F39B0003F1B2
:100FAC00844303F5602301221A60FFF73DFA786150
:100FBC0009E0FFF739FA02467B69D31AB3F57A7F59
:100FCC0001D9032306E0064B5B6803F40033002BC6
:100FDC00EFD0002318461837BD4680BD00380240BC
:100FEC000070004080B58EB000AF786000237B634A
:100FFC007B681B6803F00103002B6AD0A24B9B6833
:10100C0003F00C03042B0BD09F4B9B6803F00C03D9
:10101C00082B12D19C4B5B6803F48003002B0CD083
:10102C00994B1B6803F40033002B05D07B685B687D
:10103C00002B01D101230FE24BE0944B00221A70DC
:10104C00FFF7F2F978630AE0FFF7EEF902467B6BE3
:10105C00D21A41F288339A4201D90323FCE18A4B1C
:10106C001B6803F40033002BEED1884B7A6852686E
:10107C00D2B21A707B685B68002B15D0FFF7D4F9DD
:10108C0078630AE0FFF7D0F902467B6BD21A41F283
:10109C0088339A4201D90323DEE17B4B1B6803F4AE
:1010AC000033002BEED014E0FFF7BEF978630AE0B2
:1010BC00FFF7BAF902467B6BD21A41F288339A4297
:1010CC0001D90323C8E1704B1B6803F40033002BD8
:1010DC00EED17B681B6803F00203002B77D06A4BC0
:1010EC009B6803F00C03002B0BD0674B9B6803F041
:1010FC000C03082B26D1644B5B6803F48003002B94
:10110C0020D1614B1B6803F00203002B05D07B68D8
:10111C00DB68012B01D001239EE15B4B5A4A12681C
:10112C0022F0F8017A681069F8223A633A6B92FA65
:10113C00A2F2FA62FA6AB2FA82F200FA02F20A43F4
:10114C001A6044E07B68DB68002B2AD0504B0122EC
:10115C001A60FFF769F9786308E0FFF765F9024652
:10116C007B6BD31A642B01D9032375E1464B1B68A7
:10117C0003F00203002BF0D0434B434A126822F0D9
:10118C00F8017A681069F822BA62BA6A92FAA2F285
:10119C007A627A6AB2FA82F200FA02F20A431A60AE
:1011AC0015E03B4B00221A60FFF73EF9786308E02C
:1011BC00FFF73AF902467B6BD31A642B01D9032350
:1011CC004AE1314B1B6803F00203002BF0D17B6822
:1011DC001B6803F00803002B30D07B685B69002B85
:1011EC0016D02C4B01221A60FFF71EF9786308E029
:1011FC00FFF71AF902467B6BD31A642B01D9032330
:10120C002AE1214B5B6F03F00203002BF0D015E0B9
:10121C00204B00221A60FFF707F9786308E0FFF70C
:10122C0003F902467B6BD31A642B01D9032313E118
:10123C00154B5B6F03F00203002BF0D17B681B682E
:10124C0003F00403002B7BD00F4B0F4A126C42F0BF
:10125C0080521A640C4B1B6C03F08053BB60BB6850
:10126C000D4B0D4A126842F480721A60FFF7DCF8DD
:10127C00786313E0FFF7D8F802467B6BD31A642B24
:10128C000CD90323E8E000BF0038024002380240CA
:10129C0000004742800E474200700040704B1B68B4
:1012AC0003F48073002BE5D06E4B00221A70FFF70D
:1012BC00BBF878630AE0FFF7B7F802467B6BD21AEB
:1012CC0041F288339A4201D90323C5E0664B1B6F68
:1012DC0003F00203002BEED1624B7A689268D2B213
:1012EC001A707B689B68002B15D0FFF79DF878630C
:1012FC000AE0FFF799F802467B6BD21A41F2883369
:10130C009A4201D90323A7E0574B1B6F03F002034A
:10131C00002BEED014E0FFF787F878630AE0FFF7B4
:10132C0083F802467B6BD21A41F288339A4201D978
:10133C00032391E04C4B1B6F03F00203002BEED107
:10134C007B689B69002B00F08680474B9B6803F001
:10135C000C03082B7DD07B689B69022B62D1434B1D
:10136C0000221A60FFF760F8786308E0FFF75CF87A
:10137C0002467B6BD31A642B01D903236CE03A4BE6
:10138C001B6803F00073002BF0D1374B7A68D169DE
:10139C007A68126A11437A68506A47F6C0723A62E8
:1013AC003A6A92FAA2F2FA61FA69B2FA82F200FA95
:1013BC0002F211437A68926A5208501E4FF440327E
:1013CC00BA61BA6992FAA2F27A617A69B2FA82F2D5
:1013DC0000FA02F211437A68D06A4FF070623A61F7
:1013EC003A6992FAA2F2FA60FA68B2FA82F200FA58
:1013FC0002F20A435A601D4B01221A60FFF714F8DF
:10140C00786308E0FFF710F802467B6BD31A642B65
:10141C0001D9032320E0144B1B6803F00073002B4D
:10142C00F0D018E0114B00221A60FEF7FDFF786334
:10143C0008E0FEF7F9FF02467B6BD31A642B01D947
:10144C00032309E0084B1B6803F00073002BF0D159
:10145C0001E0012300E0002318463837BD4680BD6B
:10146C000070004070380240003802406000474273
:10147C0080B584B000AF786039600023FB60A24B6C
:10148C001B6803F00F023B689A4280F0A8809E4BC9
:10149C003A68D2B21A709C4B1B6803F00F023B687F
:1014AC009A4201D0012369E17B681B6803F00203B7
:1014BC00002B08D0954B954A926822F0F0017A687F
:1014CC0092680A439A607B681B6803F00103002B47
:1014DC0000F031817B685B68012B07D18B4B1B685B
:1014EC0003F40033002B1AD1012347E17B685B68BE
:1014FC00022B03D07B685B68032B08D1834B1B68E2
:10150C0003F00073002B01D1012337E107E07F4B7F
:10151C001B6803F00203002B01D101232EE17B4B4E
:10152C007A4A926822F003017A6852680A439A60F8
:10153C00FEF77AFFF8607B685B68012B12D10AE03A
:10154C00FEF772FF0246FB68D21A41F288339A42C8
:10155C0001D9032312E16D4B9B6803F00C03042BA0
:10156C00EED1E8E07B685B68022B12D10AE0FEF753
:10157C005BFF0246FB68D21A41F288339A4201D9CA
:10158C000323FBE0614B9B6803F00C03082BEED1AB
:10159C00D1E07B685B68032B0ED101E00323EDE007
:1015AC005A4B9B68FEF740FF0246FB68D21A41F289
:1015BC0088339A42F4D9F1E70AE0FEF735FF024688
:1015CC00FB68D21A41F288339A4201D90323D5E041
:1015DC004E4B9B6803F00C03002BEED1ABE07B6809
:1015EC001B6803F00203002B08D0484B474A926853
:1015FC0022F0F0017A6892680A439A607B681B6853
:10160C0003F00103002B00F089807B685B68012BE1
:10161C0007D13E4B1B6803F40033002B1AD1012376
:10162C00ACE07B685B68022B03D07B685B68032BA8
:10163C0008D1364B1B6803F00073002B01D101233A
:10164C009CE007E0314B1B6803F00203002B01D137
:10165C00012393E02D4B2D4A926822F003017A6806
:10166C0052680A439A60FEF7DFFEF8607B685B689D
:10167C00012B12D10AE0FEF7D7FE0246FB68D21A04
:10168C0041F288339A4201D9032377E01F4B9B68C0
:10169C0003F00C03042BEED140E07B685B68022B5B
:1016AC0012D10AE0FEF7C0FE0246FB68D21A41F2E4
:1016BC0088339A4201D9032360E0144B9B6803F0F2
:1016CC000C03082BEED129E07B685B68032B0ED151
:1016DC0001E0032352E00D4B9B68FEF7A5FE02468A
:1016EC00FB68D21A41F288339A42F4D9F1E70FE041
:1016FC00FEF79AFE0246FB68D21A41F288339A42F0
:10170C0006D903233AE000BF003C024000380240F7
:10171C001C4B9B6803F00C03002BE9D11A4B3A6865
:10172C00D2B21A70184B1B6803F00F023B689A4236
:10173C0001D0012322E07B681B6803F00403002B1B
:10174C0008D0104B0F4A926822F4E0517A68D268A4
:10175C000A439A607B681B6803F00803002B09D0CE
:10176C00084B084A926822F460417A681269D200E8
:10177C000A439A600F20FEF72DFE002318461037FF
:10178C00BD4680BD00380240003C024080B48BB0A6
:10179C0000AF0023FB6100237B620023BB610023AD
:1017AC003B62364B9B6803F00C03042B06D0082BD2
:1017BC0007D0002B58D1324B3B6258E0314B3B6287
:1017CC0055E02E4B5B6803F03F03FB612B4B5B68D2
:1017DC0003F48003002B17D02A4AFB69B2FBF3F207
:1017EC00264B596847F6C0730B4047F6C0717961B8
:1017FC00796991FAA1F139613969B1FA81F1CB407A
:10180C0003FB02F37B6216E01D4AFB69B2FBF3F2A9
:10181C001A4B596847F6C0730B4047F6C071F96014
:10182C00F96891FAA1F1B960B968B1FA81F1CB40CC
:10183C0003FB02F37B62114B5B6803F440324FF401
:10184C0040337B607B6893FAA3F33B603B68B3FA4D
:10185C0083F322FA03F301335B00BB617A6ABB6941
:10186C00B2FBF3F33B6202E0054B3B6200BF3B6A09
:10187C0018462C37BD465DF8047B70470038024093
:10188C000024F40000127A0080B582B000AFFFF79C
:10189C007DFF02460C4B9B6803F0F001F0237B604C
:1018AC007B6893FAA3F33B603B68B3FA83F321FAAA
:1018BC0003F30649CB5CDA40054B1A60044B1B68FA
:1018CC0018460837BD4680BD00380240F82900088C
:1018DC00A400002080B582B000AFFFF7D5FF024610
:1018EC000B4B9B6803F4E0514FF4E0537B607B6837
:1018FC0093FAA3F33B603B68B3FA83F321FA03F347
:10190C000449CB5C22FA03F318460837BD4680BD68
:10191C0000380240F829000880B582B000AFFFF70C
:10192C00B3FF02460B4B9B6803F460414FF46043DA
:10193C007B607B6893FAA3F33B603B68B3FA83F359
:10194C0021FA03F30449CB5C22FA03F31846083757
:10195C00BD4680BD00380240F829000880B582B031
:10196C0000AF78607B68002B01D101233BE07B68E2
:10197C0093F83930DBB2002B06D17B68002283F858
:10198C003820786800F070FE7B68022283F83920DA
:10199C007B681B687A681268D26822F40052DA609D
:1019AC00786800F0D5FB7B681B687A68126812694E
:1019BC0022F490421A617B681B687A68126852693B
:1019CC0022F02A025A617B681B687A681268D26816
:1019DC0042F40052DA607B680022DA637B680122F1
:1019EC0083F83920002318460837BD4680BD00BF58
:1019FC0080B586B000AFF860B9601346FB80002359
:101A0C007B61FB6893F83930DBB27B617B69012B1E
:101A1C0002D07B69222B5AD1BB68002B02D0FB88E9
:101A2C00002B01D1012353E0FB6893F83830012BD4
:101A3C0001D102234CE0FB68012283F83820BA68FC
:101A4C00FB681A62FB68FA889A84FB68FA88DA8465
:101A5C00FB680022DA63FB6893F83930DBB2222B87
:101A6C0004D1FB68322283F8392003E0FB68122290
:101A7C0083F83920FB681B6B174ADA63FB681B6B16
:101A8C00164A1A64FB681B6B154A9A6407F1080323
:101A9C003B61FB68186B3B691968FB681B68043376
:101AAC001A46FB88FEF756FEFB681B686FF0400277
:101ABC001A60FB681B68FA681268526942F080026F
:101ACC005A61FB68002283F83820002300E00223CF
:101ADC0018461837BD4680BDF51D0008451E000888
:101AEC00D91E000880B586B000AFF860B960134607
:101AFC00FB8000237B61FB6893F83930DBB27B61A0
:101B0C007B69012B02D07B69122B52D1BB68002B55
:101B1C0002D0FB88002B01D101234BE0FB6893F82A
:101B2C003830012B01D1022344E0FB68012283F8F9
:101B3C003820BA68FB689A62FB68FA889A85FB6859
:101B4C000022DA63FB6893F83930DBB2122B04D134
:101B5C00FB68322283F8392003E0FB68222283F8E9
:101B6C003920FB685B6B154ADA63FB685B6B144AC4
:101B7C001A64FB685B6B134A9A6407F108033B61B8
:101B8C00FB68586BFB681B68043319463B691A6881
:101B9C00FB88FEF7DFFDFB681B68FA681268526968
:101BAC0042F040025A61FB68002283F8382000237F
:101BBC0000E0022318461837BD4680BD611E0008A0
:101BCC00BD1E0008D91E000880B588B000AF786033
:101BDC000023FB610023BB617B681B681B6803F05F
:101BEC000103002B0CBF00230123DBB2FB617B68DC
:101BFC001B68DB6803F48073BB61FB69002B11D09D
:101C0C00BB69002B0ED07B681B681B687B617B68F3
:101C1C001B685B687B617B697B68DB6B43F0010253
:101C2C007B68DA637B681B681B6803F00203002B7C
:101C3C000CBF00230123DBB2FB617B681B685B6973
:101C4C0003F00103BB61FB69002B11D0BB69002BB6
:101C5C000ED07B681B681B683B617B681B685B68EC
:101C6C003B613B697B68DB6B43F004027B68DA63A6
:101C7C007B681B681B6803F00403002B0CBF00235C
:101C8C000123DBB2FB617B681B685B6903F001031A
:101C9C00BB61FB69002B11D0BB69002B0ED07B689C
:101CAC001B681B68FB607B681B685B68FB60FB68E0
:101CBC007B68DB6B43F002027B68DA637B681B6832
:101CCC001B6803F00803002B0CBF00230123DBB2BD
:101CDC00FB617B681B685B6903F00103BB61FB69FB
:101CEC00002B11D0BB69002B0ED07B681B681B68C6
:101CFC00BB607B681B685B68BB60BB687B68DB6B2D
:101D0C0043F008027B68DA637B681B681B6803F08E
:101D1C002003002B0CBF00230123DBB2FB617B688B
:101D2C001B68DB6803F02003BB61FB69002B05D04B
:101D3C00BB69002B02D0786800F076F97B681B68D1
:101D4C001B6803F08003002B0CBF00230123DBB2C4
:101D5C00FB617B681B68DB6803F08003BB61FB697C
:101D6C00002B05D0BB69002B02D0786800F0CCF8B2
:101D7C007B681B681B6803F04003002B0CBF00231F
:101D8C000123DBB2FB617B681B68DB6803F040035B
:101D9C00BB61FB69002B05D0BB69002B02D07868B6
:101DAC0000F00EF97B68DB6B002B06D07B68012200
:101DBC0083F83920786800F025FC2037BD4680BDBB
:101DCC0080B483B000AF78600C37BD465DF8047BFF
:101DDC00704700BF80B483B000AF78600C37BD464D
:101DEC005DF8047B704700BF80B584B000AF7860AD
:101DFC007B689B6BFB607B681B681B6803F48073C0
:101E0C00002B13D1FB680022DA84FB681B68FA688C
:101E1C001268526922F080025A61FB681B68FA68EA
:101E2C001268D26842F04002DA6002E0F86800F012
:101E3C00C9FB1037BD4680BD80B584B000AF78605B
:101E4C007B689B6BFB60F868FFF7BAFF1037BD46E9
:101E5C0080BD00BF80B584B000AF78607B689B6BA1
:101E6C00FB607B681B681B6803F48073002B19D123
:101E7C00FB680022DA85FB681B68FA6812685269F5
:101E8C0022F040025A61FB6893F83930DBB2322BF6
:101E9C0004D1FB68122283F8392003E0FB6801228D
:101EAC0083F83920F86800F09DFB1037BD4680BDE3
:101EBC0080B584B000AF78607B689B6BFB60F86882
:101ECC00FFF788FF1037BD4680BD00BF80B584B0DA
:101EDC0000AF78607B689B6BFB60FB680022DA8547
:101EEC00FB680022DA84FB68012283F83920FB6846
:101EFC00DB6B43F01002FB68DA63F86800F082FBDE
:101F0C001037BD4680BD00BF80B485B000AF78608F
:101F1C000023FB607B6893F83930DBB2FB60FB6815
:101F2C00122B02D0FB68322B43D17B689B68B3F534
:101F3C00805F19D17B681B6ABB607B681B68BA68C1
:101F4C001288C2F308025A607B681B69002B05D10A
:101F5C007B681B6A9A1C7B681A620EE07B681B6AA2
:101F6C005A1C7B681A6208E07B681A687B681B6ADB
:101F7C00581C796808621B7853607B68DB8C013BCA
:101F8C009AB27B68DA847B68DB8C002B0FD17B6880
:101F9C001B687A681268D26822F08002DA607B686B
:101FAC001B687A681268D26842F04002DA6000233B
:101FBC0000E0022318461437BD465DF8047B7047D9
:101FCC0080B582B000AF78607B681B687A68126855
:101FDC00D26822F04002DA607B6893F83930DBB2C9
:101FEC00322B04D17B68222283F8392013E07B68E2
:101FFC001B687A681268D26822F48072DA607B6897
:10200C001B687A681268526922F001025A617B6877
:10201C00012283F83920786800F0D4FA002318469E
:10202C000837BD4680BD00BF80B584B000AF786076
:10203C000023FB607B6893F83930DBB2FB60FB68F4
:10204C00222B02D0FB68322B7CD17B689B68B3F5CA
:10205C00805F23D17B689B6ABB607B681B69002B0C
:10206C000ED17B681B685B689BB2C3F308039AB202
:10207C00BB681A807B689B6A9A1C7B689A6229E011
:10208C007B681B685B689BB2DBB29AB2BB681A8038
:10209C007B689B6A5A1C7B689A621BE07B681B6995
:1020AC00002B0AD17B689B6A591C7A6891627A680A
:1020BC0012685268D2B21A700CE07B689B6A591C89
:1020CC007A6891627A6812685268D2B202F07F0222
:1020DC00D2B21A707B68DB8D013B9AB27B68DA85D1
:1020EC007B68DB8D002B2BD17B681B687A681268B0
:1020FC00D26822F02002DA607B6893F83930DBB2C8
:10210C00322B04D17B68122283F8392013E07B68D0
:10211C001B687A681268D26822F48072DA607B6875
:10212C001B687A681268526922F001025A617B6856
:10213C00012283F83920786800F054FA002302E079
:10214C00002300E0022318461037BD4680BD00BFB7
:10215C00F0B585B000AF78600023FB607B681B682E
:10216C001B69FB60FB6823F44053FB607B68DB68F6
:10217C00FA681343FB607B681B68FA681A617B681A
:10218C001B68DB68FB60FB6823F4164323F00C032D
:10219C00FB607B689A687B681B691A437B685B6988
:1021AC001A437B68DB691343FA681343FB607B6853
:1021BC001B68FA68DA607B681B685B69FB60FB680C
:1021CC0023F44073FB607B689B69FA681343FB60E4
:1021DC007B681B68FA685A617B68DB69B3F5004F52
:1021EC0040F08E807B681A688D4B9A4204D07B68D5
:1021FC001A688C4B9A4241D17B681C68FFF78CFBA8
:10220C00024613469B0013449A001A447B685B6891
:10221C005B00B2FBF3F2844BA3FB02135B091D01C1
:10222C00FFF77AFB024613469B0013449A001A44AC
:10223C007B685B685B00B2FBF3F6FFF76DFB024655
:10224C0013469B0013449A001A447B685B685B003E
:10225C00B2FBF3F2744BA3FB02135B09642202FB87
:10226C0003F3F31A1B0103F132026F4BA3FB0213AE
:10227C005B0903F00F032B43A360CEE07B681C6863
:10228C00FFF728FB024613469B0013449A001A449E
:10229C007B685B685B00B2FBF3F2634BA3FB02133E
:1022AC005B091D01FFF716FB024613469B00134406
:1022BC009A001A447B685B685B00B2FBF3F6FFF78D
:1022CC0009FB024613469B0013449A001A447B6890
:1022DC005B685B00B2FBF3F2534BA3FB02135B098D
:1022EC00642202FB03F3F31A1B0103F132024E4B7F
:1022FC00A3FB02135B0903F00F032B43A3608CE0D9
:10230C007B681A68464B9A4204D07B681A68454B26
:10231C009A4241D17B681C68FFF7FEFA02461346CD
:10232C009B0013449A001A447B685B689B00B2FBC9
:10233C00F3F23D4BA3FB02135B091D01FFF7ECFA13
:10234C00024613469B0013449A001A447B685B6850
:10235C009B00B2FBF3F6FFF7DFFA024613469B0035
:10236C0013449A001A447B685B689B00B2FBF3F23F
:10237C002D4BA3FB02135B09642202FB03F3F31A3C
:10238C001B0103F13202284BA3FB02135B0903F080
:10239C000F032B43A36040E07B681C68FFF79AFA9D
:1023AC00024613469B0013449A001A447B685B68F0
:1023BC009B00B2FBF3F21C4BA3FB02135B091D0148
:1023CC00FFF788FA024613469B0013449A001A44FE
:1023DC007B685B689B00B2FBF3F6FFF77BFA024667
:1023EC0013469B0013449A001A447B685B689B005D
:1023FC00B2FBF3F20C4BA3FB02135B09642202FB4E
:10240C0003F3F31A1B0103F13202074BA3FB021374
:10241C005B0903F00F032B43A3601437BD46F0BDDB
:10242C0000100140001401401F85EB5180B500AF36
:10243C00FDF7A8FF0020FDF709FF0120FDF706FFBF
:10244C0000F068F82E4B2F4A1A602D4B4FF41652A1
:10245C005A602B4B00229A60294B0022DA60284BE1
:10246C0000221A61264B00229A61254B0C225A61DC
:10247C00234B0022DA612248FFF770FA0346002B47
:10248C0001D000F0EBF81E481F499922FFF72AFBF8
:10249C000346002B02D000F0E1F8FFE700BF1B4B16
:1024AC001B78DBB2012BFAD1184B00221A700020DA
:1024BC00FDF736FF124816499922FFF799FA0346A1
:1024CC00002B02D000F0CAF8FFE700BF0F4B1B78BF
:1024DC00DBB2012BFAD10D4B00221A700C480A49C1
:1024EC00992200F099F80346002B01D000F0B6F8C1
:1024FC000020FDF72FFF2820FDF7A2FFF8E700BF13
:10250C007C01002000100140BC010020C80000200C
:10251C000800002080B594B000AF284B274A126CFD
:10252C0042F080521A64254B1B6C03F08053BB6045
:10253C00BB68234B224A126842F440421A60204B7B
:10254C001B6803F440437B607B680123FB60012321
:10255C003B6102237B624FF48003BB620823FB6266
:10256C004FF4B4733B6302237B630723BB6307F114
:10257C000C031846FEF736FD0346002B01D000F085
:10258C006DF8FEF7CBFC0F23FB6302233B640023A7
:10259C007B644FF4A053BB644FF48053FB6407F18E
:1025AC003C0318460521FEF763FF0346002B01D0C0
:1025BC0000F054F85037BD4680BD00BF00380240D3
:1025CC000070004080B582B000AF7860044B0122EF
:1025DC001A700020FDF78AFE0837BD4680BD00BF8B
:1025EC00C800002080B582B000AF7860044B012297
:1025FC001A700020FDF77AFE0837BD4680BD00BF7B
:10260C00C800002080B582B000AF78600020FDF7D4
:10261C006DFE0837BD4680BD80B485B000AFF86054
:10262C00B9601346FB800DE0FB681A78BB681B7819
:10263C009A4201D0FB880BE0FB680133FB60BB685E
:10264C000133BB60FB885A1EFA80002BECD10023AF
:10265C0018461437BD465DF8047B704780B500AF53
:10266C000120FDF743FEFEE780B58CB000AF78602B
:10267C00674B674A126B42F001021A63644B1B6B87
:10268C0003F00103BB61BB69614B614A126B42F001
:10269C0001021A635E4B1B6B03F001037B617B69C8
:1026AC005B4B5B4A526C42F010025A64584B5B6CA9
:1026BC0003F010033B613B69554B554A126B42F4D6
:1026CC0080021A63524B1B6B03F48003FB60FB68A4
:1026DC004FF40073FB6102233B6200237B620223F5
:1026EC00BB620723FB6207F11C034A481946FEF73D
:1026FC0043FA4FF48063FB610723FB6207F11C0371
:10270C0044481946FEF738FA434B444A1A60424B88
:10271C004FF000625A60404B40229A603E4B0022C0
:10272C00DA603D4B4FF480621A613B4B00225A61D8
:10273C00394B00229A61384B0022DA61364B002269
:10274C001A62354B00225A62334B03229A62324B87
:10275C004FF40002DA62304B4FF400121A632E4829
:10276C00FDF78CFF7B682C4A1A632B4B7A689A63B3
:10277C002B4B2C4A1A602A4B4FF000625A60284BA4
:10278C0000229A60264B0022DA60254B4FF48062BF
:10279C001A61234B00225A61214B00229A61204B73
:1027AC000022DA611E4B4FF400321A621C4B0022DD
:1027BC005A621B4B03229A62194B4FF40002DA62E5
:1027CC00174B4FF400121A631548FDF757FF7B683F
:1027DC00134A5A63124B7A689A63462000210122ED
:1027EC00FDF716FF4620FDF72FFF442000210022A5
:1027FC00FDF70EFF4420FDF727FF252000210022C6
:10280C00FDF706FF2520FDF71FFF3037BD4680BDC5
:10281C000038024000000240CC000020B8640240A6
:10282C00240100208864024080B400AFBD465DF8EE
:10283C00047B704780B400AFFEE700BF80B400AFEC
:10284C00FEE700BF80B400AFFEE700BF80B400AF6E
:10285C00FEE700BF80B400AFBD465DF8047B704757
:10286C0080B400AFBD465DF8047B704780B400AF08
:10287C00BD465DF8047B704780B500AFFDF7C6FD23
:10288C0080BD00BF80B500AF024B5B6B1846FDF7F7
:10289C00A3FF80BD7C01002080B500AF024B1B6BF9
:1028AC001846FDF799FF80BD7C01002080B500AF74
:1028BC000148FFF789F980BD7C01002080B400AF8E
:1028CC00164B164AD2F8882042F47002C3F88820BE
:1028DC00134B134A126842F001021A60104B00228B
:1028EC009A600F4A0E4B1B6823F0847323F48033D9
:1028FC0013600B4B0B4A5A60094B094A126822F4BD
:10290C0080221A60064B0022DA60044B4FF0006202
:10291C009A60BD465DF8047B704700BF00ED00E097
:10292C000038024010300024DFF834D0002103E0DE
:10293C000C4B5B58435004310B480C4B42189A42D9
:10294C00F6D30B4A02E0002342F8043B094B9A42AF
:10295C00F9D3FFF7B3FF00F011F8FFF767FD7047ED
:10296C00FFFF0220102A000800000020A800002011
:10297C00A800002058020020FEE7000070B50E4BA6
:10298C000E4DED1AAD1000241E46AC4204D056F884
:10299C00242090470134F8E700F016F8084D094B55
:1029AC00ED1AAD1000241E46AC4204D056F824207B
:1029BC0090470134F8E770BD082A0008082A00087F
:1029CC000C2A0008082A0008F8B500BFF8BC08BC9F
:1029DC009E467047F8B500BFF8BC08BC9E467047D1
:1029EC000020004000061016000610160000000023
:0C29FC000102030401020304060708099D
:042A0800250200089B
:042A0C00FD010008C0
:102A10000018024000180240202A2A2A2A55415252
:102A2000545F54776F426F6172647320636F6D6D92
:102A3000756E69636174696F6E206261736564208D
:102A40006F6E20444D412A2A2A2A20202A2A2A2A27
:102A5000554152545F54776F426F617264732063C3
:102A60006F6D6D756E69636174696F6E20626173FD
:102A70006564206F6E20444D412A2A2A2A20202A8C
:102A80002A2A2A554152545F54776F426F6172640B
:102A90007320636F6D6D756E69636174696F6E200D
:102AA0006261736564206F6E20444D412A2A2A2A90
:082AB000200000000024F400E6
:040000050800293591
:00000001FF
